{"abi":[{"type":"function","name":"MAX_PRICE","inputs":[],"outputs":[{"name":"","type":"uint256","internalType":"uint256"}],"stateMutability":"view"},{"type":"function","name":"MIN_PRICE","inputs":[],"outputs":[{"name":"","type":"uint256","internalType":"uint256"}],"stateMutability":"view"},{"type":"function","name":"Q96","inputs":[],"outputs":[{"name":"","type":"uint256","internalType":"uint256"}],"stateMutability":"view"},{"type":"function","name":"SCALE","inputs":[],"outputs":[{"name":"","type":"uint256","internalType":"uint256"}],"stateMutability":"view"},{"type":"function","name":"calculatePayout","inputs":[{"name":"userTokens","type":"uint256","internalType":"uint256"},{"name":"totalWinningTokens","type":"uint256","internalType":"uint256"},{"name":"totalPayout","type":"uint256","internalType":"uint256"}],"outputs":[{"name":"payout","type":"uint256","internalType":"uint256"}],"stateMutability":"pure"},{"type":"function","name":"calculatePriceFromReserves","inputs":[{"name":"creditsReserve","type":"uint256","internalType":"uint256"},{"name":"tokensReserve","type":"uint256","internalType":"uint256"}],"outputs":[{"name":"price","type":"uint256","internalType":"uint256"}],"stateMutability":"pure"},{"type":"function","name":"calculateRefund","inputs":[{"name":"totalCredits","type":"uint256","internalType":"uint256"},{"name":"usedCredits","type":"uint256","internalType":"uint256"},{"name":"refundRate","type":"uint256","internalType":"uint256"}],"outputs":[{"name":"refund","type":"uint256","internalType":"uint256"}],"stateMutability":"pure"},{"type":"function","name":"calculateTokensOut","inputs":[{"name":"creditsIn","type":"uint256","internalType":"uint256"},{"name":"creditsReserve","type":"uint256","internalType":"uint256"},{"name":"tokensReserve","type":"uint256","internalType":"uint256"}],"outputs":[{"name":"tokensOut","type":"uint256","internalType":"uint256"}],"stateMutability":"pure"},{"type":"function","name":"checkSlippage","inputs":[{"name":"expectedAmount","type":"uint256","internalType":"uint256"},{"name":"actualAmount","type":"uint256","internalType":"uint256"},{"name":"maxSlippageBps","type":"uint256","internalType":"uint256"}],"outputs":[{"name":"isAcceptable","type":"bool","internalType":"bool"}],"stateMutability":"pure"},{"type":"function","name":"getLiquidityForAmounts","inputs":[{"name":"amount0","type":"uint256","internalType":"uint256"},{"name":"amount1","type":"uint256","internalType":"uint256"},{"name":"sqrtPriceX96","type":"uint160","internalType":"uint160"}],"outputs":[{"name":"liquidity","type":"uint128","internalType":"uint128"}],"stateMutability":"pure"},{"type":"function","name":"priceToSqrtPriceX96","inputs":[{"name":"price","type":"uint256","internalType":"uint256"}],"outputs":[{"name":"sqrtPriceX96","type":"uint160","internalType":"uint160"}],"stateMutability":"pure"},{"type":"function","name":"safeAdd","inputs":[{"name":"a","type":"uint256","internalType":"uint256"},{"name":"b","type":"uint256","internalType":"uint256"}],"outputs":[{"name":"","type":"uint256","internalType":"uint256"}],"stateMutability":"pure"},{"type":"function","name":"safeSub","inputs":[{"name":"a","type":"uint256","internalType":"uint256"},{"name":"b","type":"uint256","internalType":"uint256"}],"outputs":[{"name":"","type":"uint256","internalType":"uint256"}],"stateMutability":"pure"},{"type":"function","name":"sqrt","inputs":[{"name":"x","type":"uint256","internalType":"uint256"}],"outputs":[{"name":"result","type":"uint256","internalType":"uint256"}],"stateMutability":"pure"},{"type":"function","name":"sqrtPriceX96ToPrice","inputs":[{"name":"sqrtPriceX96","type":"uint160","internalType":"uint160"}],"outputs":[{"name":"price","type":"uint256","internalType":"uint256"}],"stateMutability":"pure"},{"type":"error","name":"MathUtils_InsufficientLiquidity","inputs":[]},{"type":"error","name":"MathUtils_InvalidPrice","inputs":[]},{"type":"error","name":"MathUtils_Overflow","inputs":[]},{"type":"error","name":"MathUtils_SlippageExceeded","inputs":[]}],"bytecode":{"object":"0x610e4361004d600b8282823980515f1a6073146041577f4e487b71000000000000000000000000000000000000000000000000000000005f525f60045260245ffd5b305f52607381538281f3fe73000000000000000000000000000000000000000030146080604052600436106100fe575f3560e01c806389c8e276116100a0578063d793618d1161006f578063d793618d146102dc578063e6cb90131461030c578063eced55261461033c578063f0f3d70c1461035a576100fe565b806389c8e2761461022e578063a293d1e81461025e578063aa52cba71461028e578063ad9f20a6146102be576100fe565b80630caee2ca116100dc5780630caee2ca1461018057806340792465146101b05780636300c147146101ce578063677342ce146101fe576100fe565b806301c11d96146101025780630818ec8a146101205780630c4ce59314610150575b5f80fd5b61010a61038a565b60405161011791906109db565b60405180910390f35b61013a60048036038101906101359190610a22565b6103a0565b60405161014791906109db565b60405180910390f35b61016a60048036038101906101659190610a22565b61048c565b6040516101779190610a8c565b60405180910390f35b61019a60048036038101906101959190610a22565b6104c7565b6040516101a791906109db565b60405180910390f35b6101b86104ec565b6040516101c591906109db565b60405180910390f35b6101e860048036038101906101e39190610aa5565b6104fd565b6040516101f591906109db565b60405180910390f35b61021860048036038101906102139190610ae3565b610568565b60405161022591906109db565b60405180910390f35b61024860048036038101906102439190610a22565b6105c3565b60405161025591906109db565b60405180910390f35b61027860048036038101906102739190610aa5565b61063a565b60405161028591906109db565b60405180910390f35b6102a860048036038101906102a39190610b57565b610689565b6040516102b591906109db565b60405180910390f35b6102c66106f9565b6040516102d391906109db565b60405180910390f35b6102f660048036038101906102f19190610ae3565b6106fe565b6040516103039190610b91565b60405180910390f35b61032660048036038101906103219190610aa5565b610806565b60405161033391906109db565b60405180910390f35b610344610851565b60405161035191906109db565b60405180910390f35b610374600480360381019061036f9190610baa565b61085d565b6040516103819190610c24565b60405180910390f35b6fffffffffffffffffffffffffffffffff801681565b5f808314806103ae57505f82145b156103e5576040517f6834e32600000000000000000000000000000000000000000000000000000000815260040160405180910390fd5b5f6103f285846001610900565b90505f85856104019190610c6a565b90505f810361043c576040517f6834e32600000000000000000000000000000000000000000000000000000000815260040160405180910390fd5b80826104489190610cca565b9250838310610483576040517f6834e32600000000000000000000000000000000000000000000000000000000815260040160405180910390fd5b50509392505050565b5f83831061049d57600190506104c0565b5f6104b684866104ad9190610cfa565b61271087610900565b9050828111159150505b9392505050565b5f8083036104d7575f90506104e5565b6104e2848385610900565b90505b9392505050565b6c0100000000000000000000000081565b5f80820361050e5760019050610562565b61052183670de0b6b3a764000084610900565b90506fffffffffffffffffffffffffffffffff8016811115610553576fffffffffffffffffffffffffffffffff801690505b600181101561056157600190505b5b92915050565b5f808203610578575f90506105be565b8190505f60018084901c61058c9190610c6a565b90505b818110156105bc5780915060018182856105a99190610cca565b6105b39190610c6a565b901c905061058f565b505b919050565b5f838311156105fe576040517f324cc63e00000000000000000000000000000000000000000000000000000000815260040160405180910390fd5b5f838561060b9190610cfa565b90505f6106218585670de0b6b3a7640000610900565b9050808261062f9190610c6a565b925050509392505050565b5f82821115610675576040517f324cc63e00000000000000000000000000000000000000000000000000000000815260040160405180910390fd5b81836106819190610cfa565b905092915050565b5f806106cf8373ffffffffffffffffffffffffffffffffffffffff168473ffffffffffffffffffffffffffffffffffffffff166c01000000000000000000000000610900565b90506106f181670de0b6b3a76400006c01000000000000000000000000610900565b915050919050565b600181565b5f8061070983610568565b9050610733816c0100000000000000000000000061072e670de0b6b3a7640000610568565b610900565b91506401000276a38273ffffffffffffffffffffffffffffffffffffffff161015610793576040517f08c379a000000000000000000000000000000000000000000000000000000000815260040161078a90610d87565b60405180910390fd5b73fffd8963efd1fc6a506488495d951d5263988d268273ffffffffffffffffffffffffffffffffffffffff161115610800576040517f08c379a00000000000000000000000000000000000000000000000000000000081526004016107f790610def565b60405180910390fd5b50919050565b5f80828401905083811015610847576040517f324cc63e00000000000000000000000000000000000000000000000000000000815260040160405180910390fd5b8091505092915050565b670de0b6b3a764000081565b5f808273ffffffffffffffffffffffffffffffffffffffff1603610883575f90506108f9565b5f6108b2858473ffffffffffffffffffffffffffffffffffffffff166c01000000000000000000000000610900565b90505f6108e3856c010000000000000000000000008673ffffffffffffffffffffffffffffffffffffffff16610900565b90508082106108f257806108f4565b815b925050505b9392505050565b5f8083850290505f801985870982811083820303915050808411610922575f80fd5b5f810361093557838204925050506109bc565b5f8486880990508281118203915080830392505f85865f0316905080860495508084049350600181825f0304019050808302841793505f600287600302189050808702600203810290508087026002038102905080870260020381029050808702600203810290508087026002038102905080870260020381029050808502955050505050505b9392505050565b5f819050919050565b6109d5816109c3565b82525050565b5f6020820190506109ee5f8301846109cc565b92915050565b5f80fd5b610a01816109c3565b8114610a0b575f80fd5b50565b5f81359050610a1c816109f8565b92915050565b5f805f60608486031215610a3957610a386109f4565b5b5f610a4686828701610a0e565b9350506020610a5786828701610a0e565b9250506040610a6886828701610a0e565b9150509250925092565b5f8115159050919050565b610a8681610a72565b82525050565b5f602082019050610a9f5f830184610a7d565b92915050565b5f8060408385031215610abb57610aba6109f4565b5b5f610ac885828601610a0e565b9250506020610ad985828601610a0e565b9150509250929050565b5f60208284031215610af857610af76109f4565b5b5f610b0584828501610a0e565b91505092915050565b5f73ffffffffffffffffffffffffffffffffffffffff82169050919050565b610b3681610b0e565b8114610b40575f80fd5b50565b5f81359050610b5181610b2d565b92915050565b5f60208284031215610b6c57610b6b6109f4565b5b5f610b7984828501610b43565b91505092915050565b610b8b81610b0e565b82525050565b5f602082019050610ba45f830184610b82565b92915050565b5f805f60608486031215610bc157610bc06109f4565b5b5f610bce86828701610a0e565b9350506020610bdf86828701610a0e565b9250506040610bf086828701610b43565b9150509250925092565b5f6fffffffffffffffffffffffffffffffff82169050919050565b610c1e81610bfa565b82525050565b5f602082019050610c375f830184610c15565b92915050565b7f4e487b71000000000000000000000000000000000000000000000000000000005f52601160045260245ffd5b5f610c74826109c3565b9150610c7f836109c3565b9250828201905080821115610c9757610c96610c3d565b5b92915050565b7f4e487b71000000000000000000000000000000000000000000000000000000005f52601260045260245ffd5b5f610cd4826109c3565b9150610cdf836109c3565b925082610cef57610cee610c9d565b5b828204905092915050565b5f610d04826109c3565b9150610d0f836109c3565b9250828203905081811115610d2757610d26610c3d565b5b92915050565b5f82825260208201905092915050565b7f507269636520746f6f206c6f77000000000000000000000000000000000000005f82015250565b5f610d71600d83610d2d565b9150610d7c82610d3d565b602082019050919050565b5f6020820190508181035f830152610d9e81610d65565b9050919050565b7f507269636520746f6f20686967680000000000000000000000000000000000005f82015250565b5f610dd9600e83610d2d565b9150610de482610da5565b602082019050919050565b5f6020820190508181035f830152610e0681610dcd565b905091905056fea2646970667358221220ee64bcc73d6bad11988dbe57f41b73150d73548094f71c1822855a4191d198e464736f6c634300081a0033","linkReferences":{}},"methodIdentifiers":{"MAX_PRICE()":"01c11d96","MIN_PRICE()":"ad9f20a6","Q96()":"40792465","SCALE()":"eced5526","calculatePayout(uint256,uint256,uint256)":"0caee2ca","calculatePriceFromReserves(uint256,uint256)":"6300c147","calculateRefund(uint256,uint256,uint256)":"89c8e276","calculateTokensOut(uint256,uint256,uint256)":"0818ec8a","checkSlippage(uint256,uint256,uint256)":"0c4ce593","getLiquidityForAmounts(uint256,uint256,uint160)":"f0f3d70c","priceToSqrtPriceX96(uint256)":"d793618d","safeAdd(uint256,uint256)":"e6cb9013","safeSub(uint256,uint256)":"a293d1e8","sqrt(uint256)":"677342ce","sqrtPriceX96ToPrice(uint160)":"aa52cba7"},"id":84}