{"abi":[{"type":"constructor","inputs":[{"name":"_depositToken","type":"address","internalType":"address"},{"name":"_poolManager","type":"address","internalType":"address"},{"name":"_quantumHook","type":"address","internalType":"address"},{"name":"_initialOwner","type":"address","internalType":"address"}],"stateMutability":"nonpayable"},{"type":"function","name":"DEPOSIT_TOKEN","inputs":[],"outputs":[{"name":"","type":"address","internalType":"contract IERC20"}],"stateMutability":"view"},{"type":"function","name":"INITIAL_PRICE","inputs":[],"outputs":[{"name":"","type":"uint256","internalType":"uint256"}],"stateMutability":"view"},{"type":"function","name":"POOL_FEE","inputs":[],"outputs":[{"name":"","type":"uint24","internalType":"uint24"}],"stateMutability":"view"},{"type":"function","name":"POOL_MANAGER","inputs":[],"outputs":[{"name":"","type":"address","internalType":"contract IPoolManager"}],"stateMutability":"view"},{"type":"function","name":"QUANTUM_HOOK","inputs":[],"outputs":[{"name":"","type":"address","internalType":"contract IQuantumHook"}],"stateMutability":"view"},{"type":"function","name":"REFUND_RATE","inputs":[],"outputs":[{"name":"","type":"uint256","internalType":"uint256"}],"stateMutability":"view"},{"type":"function","name":"TICK_SPACING","inputs":[],"outputs":[{"name":"","type":"int24","internalType":"int24"}],"stateMutability":"view"},{"type":"function","name":"admins","inputs":[{"name":"","type":"address","internalType":"address"}],"outputs":[{"name":"","type":"bool","internalType":"bool"}],"stateMutability":"view"},{"type":"function","name":"calculateTokensOut","inputs":[{"name":"decisionId","type":"uint256","internalType":"uint256"},{"name":"proposalId","type":"uint256","internalType":"uint256"},{"name":"creditsIn","type":"uint256","internalType":"uint256"}],"outputs":[{"name":"tokensOut","type":"uint256","internalType":"uint256"}],"stateMutability":"view"},{"type":"function","name":"claimWinnings","inputs":[{"name":"decisionId","type":"uint256","internalType":"uint256"}],"outputs":[],"stateMutability":"nonpayable"},{"type":"function","name":"createDecision","inputs":[{"name":"metadata","type":"string","internalType":"string"}],"outputs":[{"name":"decisionId","type":"uint256","internalType":"uint256"}],"stateMutability":"nonpayable"},{"type":"function","name":"createProposal","inputs":[{"name":"decisionId","type":"uint256","internalType":"uint256"},{"name":"metadata","type":"string","internalType":"string"}],"outputs":[{"name":"proposalId","type":"uint256","internalType":"uint256"}],"stateMutability":"nonpayable"},{"type":"function","name":"decisionCounter","inputs":[],"outputs":[{"name":"","type":"uint256","internalType":"uint256"}],"stateMutability":"view"},{"type":"function","name":"decisions","inputs":[{"name":"","type":"uint256","internalType":"uint256"}],"outputs":[{"name":"id","type":"uint256","internalType":"uint256"},{"name":"creator","type":"address","internalType":"address"},{"name":"metadata","type":"string","internalType":"string"},{"name":"totalDeposits","type":"uint256","internalType":"uint256"},{"name":"totalCredits","type":"uint256","internalType":"uint256"},{"name":"proposalCount","type":"uint256","internalType":"uint256"},{"name":"isSettled","type":"bool","internalType":"bool"},{"name":"winningProposal","type":"uint256","internalType":"uint256"},{"name":"createdAt","type":"uint256","internalType":"uint256"}],"stateMutability":"view"},{"type":"function","name":"deposit","inputs":[{"name":"decisionId","type":"uint256","internalType":"uint256"},{"name":"amount","type":"uint256","internalType":"uint256"}],"outputs":[],"stateMutability":"nonpayable"},{"type":"function","name":"emergencyRecover","inputs":[{"name":"token","type":"address","internalType":"address"},{"name":"amount","type":"uint256","internalType":"uint256"}],"outputs":[],"stateMutability":"nonpayable"},{"type":"function","name":"getCurrentProposalSupply","inputs":[{"name":"decisionId","type":"uint256","internalType":"uint256"},{"name":"proposalId","type":"uint256","internalType":"uint256"}],"outputs":[{"name":"supply","type":"uint256","internalType":"uint256"}],"stateMutability":"view"},{"type":"function","name":"getDecision","inputs":[{"name":"decisionId","type":"uint256","internalType":"uint256"}],"outputs":[{"name":"decision","type":"tuple","internalType":"struct IQMFactory.Decision","components":[{"name":"id","type":"uint256","internalType":"uint256"},{"name":"creator","type":"address","internalType":"address"},{"name":"metadata","type":"string","internalType":"string"},{"name":"totalDeposits","type":"uint256","internalType":"uint256"},{"name":"totalCredits","type":"uint256","internalType":"uint256"},{"name":"proposalCount","type":"uint256","internalType":"uint256"},{"name":"isSettled","type":"bool","internalType":"bool"},{"name":"winningProposal","type":"uint256","internalType":"uint256"},{"name":"createdAt","type":"uint256","internalType":"uint256"}]}],"stateMutability":"view"},{"type":"function","name":"getProposal","inputs":[{"name":"decisionId","type":"uint256","internalType":"uint256"},{"name":"proposalId","type":"uint256","internalType":"uint256"}],"outputs":[{"name":"proposal","type":"tuple","internalType":"struct IQMFactory.Proposal","components":[{"name":"id","type":"uint256","internalType":"uint256"},{"name":"decisionId","type":"uint256","internalType":"uint256"},{"name":"poolAddress","type":"address","internalType":"address"},{"name":"poolKey","type":"tuple","internalType":"struct PoolKey","components":[{"name":"currency0","type":"address","internalType":"Currency"},{"name":"currency1","type":"address","internalType":"Currency"},{"name":"fee","type":"uint24","internalType":"uint24"},{"name":"tickSpacing","type":"int24","internalType":"int24"},{"name":"hooks","type":"address","internalType":"contract IHooks"}]},{"name":"metadata","type":"string","internalType":"string"},{"name":"totalTrades","type":"uint256","internalType":"uint256"},{"name":"currentPrice","type":"uint256","internalType":"uint256"},{"name":"isActive","type":"bool","internalType":"bool"}]}],"stateMutability":"view"},{"type":"function","name":"getProposalDetails","inputs":[{"name":"decisionId","type":"uint256","internalType":"uint256"},{"name":"proposalId","type":"uint256","internalType":"uint256"}],"outputs":[{"name":"totalSupply","type":"uint256","internalType":"uint256"},{"name":"currentPrice","type":"uint256","internalType":"uint256"},{"name":"isActive","type":"bool","internalType":"bool"},{"name":"creditsReserve","type":"uint256","internalType":"uint256"},{"name":"tokensReserve","type":"uint256","internalType":"uint256"}],"stateMutability":"view"},{"type":"function","name":"getProposalPoolId","inputs":[{"name":"decisionId","type":"uint256","internalType":"uint256"},{"name":"proposalId","type":"uint256","internalType":"uint256"}],"outputs":[{"name":"poolId","type":"bytes32","internalType":"PoolId"}],"stateMutability":"view"},{"type":"function","name":"getProposalPrice","inputs":[{"name":"decisionId","type":"uint256","internalType":"uint256"},{"name":"proposalId","type":"uint256","internalType":"uint256"}],"outputs":[{"name":"price","type":"uint256","internalType":"uint256"}],"stateMutability":"view"},{"type":"function","name":"getUserPosition","inputs":[{"name":"decisionId","type":"uint256","internalType":"uint256"},{"name":"user","type":"address","internalType":"address"}],"outputs":[{"name":"totalCredits","type":"uint256","internalType":"uint256"},{"name":"usedCredits","type":"uint256","internalType":"uint256"}],"stateMutability":"view"},{"type":"function","name":"getUserProposalTokens","inputs":[{"name":"decisionId","type":"uint256","internalType":"uint256"},{"name":"proposalId","type":"uint256","internalType":"uint256"},{"name":"user","type":"address","internalType":"address"}],"outputs":[{"name":"tokens","type":"uint256","internalType":"uint256"}],"stateMutability":"view"},{"type":"function","name":"isDecisionSettled","inputs":[{"name":"decisionId","type":"uint256","internalType":"uint256"}],"outputs":[{"name":"isSettled","type":"bool","internalType":"bool"}],"stateMutability":"view"},{"type":"function","name":"owner","inputs":[],"outputs":[{"name":"","type":"address","internalType":"address"}],"stateMutability":"view"},{"type":"function","name":"proposalPools","inputs":[{"name":"","type":"uint256","internalType":"uint256"},{"name":"","type":"uint256","internalType":"uint256"}],"outputs":[{"name":"","type":"bytes32","internalType":"PoolId"}],"stateMutability":"view"},{"type":"function","name":"proposals","inputs":[{"name":"","type":"uint256","internalType":"uint256"},{"name":"","type":"uint256","internalType":"uint256"}],"outputs":[{"name":"id","type":"uint256","internalType":"uint256"},{"name":"decisionId","type":"uint256","internalType":"uint256"},{"name":"poolAddress","type":"address","internalType":"address"},{"name":"poolKey","type":"tuple","internalType":"struct PoolKey","components":[{"name":"currency0","type":"address","internalType":"Currency"},{"name":"currency1","type":"address","internalType":"Currency"},{"name":"fee","type":"uint24","internalType":"uint24"},{"name":"tickSpacing","type":"int24","internalType":"int24"},{"name":"hooks","type":"address","internalType":"contract IHooks"}]},{"name":"metadata","type":"string","internalType":"string"},{"name":"totalTrades","type":"uint256","internalType":"uint256"},{"name":"currentPrice","type":"uint256","internalType":"uint256"},{"name":"isActive","type":"bool","internalType":"bool"}],"stateMutability":"view"},{"type":"function","name":"renounceOwnership","inputs":[],"outputs":[],"stateMutability":"nonpayable"},{"type":"function","name":"setAdmin","inputs":[{"name":"admin","type":"address","internalType":"address"},{"name":"isAdmin","type":"bool","internalType":"bool"}],"outputs":[],"stateMutability":"nonpayable"},{"type":"function","name":"settle","inputs":[{"name":"decisionId","type":"uint256","internalType":"uint256"},{"name":"winningProposalId","type":"uint256","internalType":"uint256"}],"outputs":[],"stateMutability":"nonpayable"},{"type":"function","name":"trade","inputs":[{"name":"decisionId","type":"uint256","internalType":"uint256"},{"name":"proposalId","type":"uint256","internalType":"uint256"},{"name":"creditsIn","type":"uint256","internalType":"uint256"},{"name":"minTokensOut","type":"uint256","internalType":"uint256"}],"outputs":[],"stateMutability":"nonpayable"},{"type":"function","name":"transferOwnership","inputs":[{"name":"newOwner","type":"address","internalType":"address"}],"outputs":[],"stateMutability":"nonpayable"},{"type":"function","name":"userPositions","inputs":[{"name":"","type":"uint256","internalType":"uint256"},{"name":"","type":"address","internalType":"address"}],"outputs":[{"name":"totalCredits","type":"uint256","internalType":"uint256"},{"name":"usedCredits","type":"uint256","internalType":"uint256"}],"stateMutability":"view"},{"type":"event","name":"DecisionCreated","inputs":[{"name":"decisionId","type":"uint256","indexed":true,"internalType":"uint256"},{"name":"creator","type":"address","indexed":true,"internalType":"address"},{"name":"metadata","type":"string","indexed":false,"internalType":"string"},{"name":"timestamp","type":"uint256","indexed":false,"internalType":"uint256"}],"anonymous":false},{"type":"event","name":"DecisionSettled","inputs":[{"name":"decisionId","type":"uint256","indexed":true,"internalType":"uint256"},{"name":"winningProposalId","type":"uint256","indexed":true,"internalType":"uint256"},{"name":"settler","type":"address","indexed":true,"internalType":"address"},{"name":"totalPayout","type":"uint256","indexed":false,"internalType":"uint256"}],"anonymous":false},{"type":"event","name":"DepositMade","inputs":[{"name":"decisionId","type":"uint256","indexed":true,"internalType":"uint256"},{"name":"user","type":"address","indexed":true,"internalType":"address"},{"name":"amount","type":"uint256","indexed":false,"internalType":"uint256"},{"name":"credits","type":"uint256","indexed":false,"internalType":"uint256"}],"anonymous":false},{"type":"event","name":"OwnershipTransferred","inputs":[{"name":"previousOwner","type":"address","indexed":true,"internalType":"address"},{"name":"newOwner","type":"address","indexed":true,"internalType":"address"}],"anonymous":false},{"type":"event","name":"ProposalCreated","inputs":[{"name":"decisionId","type":"uint256","indexed":true,"internalType":"uint256"},{"name":"proposalId","type":"uint256","indexed":true,"internalType":"uint256"},{"name":"poolAddress","type":"address","indexed":true,"internalType":"address"},{"name":"poolKey","type":"tuple","indexed":false,"internalType":"struct PoolKey","components":[{"name":"currency0","type":"address","internalType":"Currency"},{"name":"currency1","type":"address","internalType":"Currency"},{"name":"fee","type":"uint24","internalType":"uint24"},{"name":"tickSpacing","type":"int24","internalType":"int24"},{"name":"hooks","type":"address","internalType":"contract IHooks"}]},{"name":"metadata","type":"string","indexed":false,"internalType":"string"}],"anonymous":false},{"type":"event","name":"TradeExecuted","inputs":[{"name":"decisionId","type":"uint256","indexed":true,"internalType":"uint256"},{"name":"proposalId","type":"uint256","indexed":true,"internalType":"uint256"},{"name":"trader","type":"address","indexed":true,"internalType":"address"},{"name":"creditsIn","type":"uint256","indexed":false,"internalType":"uint256"},{"name":"tokensOut","type":"uint256","indexed":false,"internalType":"uint256"},{"name":"newPrice","type":"uint256","indexed":false,"internalType":"uint256"}],"anonymous":false},{"type":"error","name":"OwnableInvalidOwner","inputs":[{"name":"owner","type":"address","internalType":"address"}]},{"type":"error","name":"OwnableUnauthorizedAccount","inputs":[{"name":"account","type":"address","internalType":"address"}]},{"type":"error","name":"ReentrancyGuardReentrantCall","inputs":[]},{"type":"error","name":"SafeERC20FailedOperation","inputs":[{"name":"token","type":"address","internalType":"address"}]}],"bytecode":{"object":"0x60e060405234801561000f575f80fd5b50604051614cce380380614cce833981810160405281019061003191906102d2565b805f73ffffffffffffffffffffffffffffffffffffffff168173ffffffffffffffffffffffffffffffffffffffff16036100a2575f6040517f1e4fbdf70000000000000000000000000000000000000000000000000000000081526004016100999190610345565b60405180910390fd5b6100b1816101b360201b60201c565b50600180819055508373ffffffffffffffffffffffffffffffffffffffff1660808173ffffffffffffffffffffffffffffffffffffffff16815250508273ffffffffffffffffffffffffffffffffffffffff1660a08173ffffffffffffffffffffffffffffffffffffffff16815250508173ffffffffffffffffffffffffffffffffffffffff1660c08173ffffffffffffffffffffffffffffffffffffffff1681525050600160065f8373ffffffffffffffffffffffffffffffffffffffff1673ffffffffffffffffffffffffffffffffffffffff1681526020019081526020015f205f6101000a81548160ff0219169083151502179055505050505061035e565b5f805f9054906101000a900473ffffffffffffffffffffffffffffffffffffffff169050815f806101000a81548173ffffffffffffffffffffffffffffffffffffffff021916908373ffffffffffffffffffffffffffffffffffffffff1602179055508173ffffffffffffffffffffffffffffffffffffffff168173ffffffffffffffffffffffffffffffffffffffff167f8be0079c531659141344cd1fd0a4f28419497f9722a3daafe3b4186f6b6457e060405160405180910390a35050565b5f80fd5b5f73ffffffffffffffffffffffffffffffffffffffff82169050919050565b5f6102a182610278565b9050919050565b6102b181610297565b81146102bb575f80fd5b50565b5f815190506102cc816102a8565b92915050565b5f805f80608085870312156102ea576102e9610274565b5b5f6102f7878288016102be565b9450506020610308878288016102be565b9350506040610319878288016102be565b925050606061032a878288016102be565b91505092959194509250565b61033f81610297565b82525050565b5f6020820190506103585f830184610336565b92915050565b60805160a05160c0516148dd6103f15f395f8181610858015281816108c501528181610dbf01528181610eb501528181610f8e0152818161173c015281816117d90152818161196001528181611ea00152611f5d01525f81816109d201528181610a8601528181610d18015261129c01525f818161076d01528181610e6c0152818161158601526125ec01526148dd5ff3fe608060405234801561000f575f80fd5b5060043610610204575f3560e01c80637c5e279511610118578063aba21009116100ab578063c0adedc91161007a578063c0adedc91461066c578063c2cfee271461069c578063dd1b9c4a146106d3578063e2bbb158146106f1578063f2fde38b1461070d57610204565b8063aba21009146105b8578063ad3a39b0146105e8578063af75484814610604578063b829df821461063457610204565b80639639011e116100e75780639639011e1461052e57806397decb3f1461054a5780639a9c29f61461057e5780639d925fc81461059a57610204565b80637c5e279514610490578063869da9db146104ae5780638ae907f0146104df5780638da5cb5b1461051057610204565b80633900f1651161019b5780634b0bddd21161016a5780634b0bddd21461040057806362308e851461041c578063677bd9ff1461043a57806369138ea914610456578063715018a61461048657610204565b80633900f165146103525780633f693e6314610382578063429b62e5146103b257806346ca626b146103e257610204565b80632153d2bb116101d75780632153d2bb146102a457806327d3cf03146102d45780632ba0a6e314610304578063313c0f011461032257610204565b806302d52fa4146102085780630818ec8a1461023857806312064caf1461026857806313f6658714610286575b5f80fd5b610222600480360381019061021d9190612ec8565b610729565b60405161022f9190612f34565b60405180910390f35b610252600480360381019061024d9190612f4d565b610d99565b60405161025f9190612f34565b60405180910390f35b610270610e64565b60405161027d9190612f34565b60405180910390f35b61028e610e6a565b60405161029b9190613017565b60405180910390f35b6102be60048036038101906102b99190613030565b610e8e565b6040516102cb9190612f34565b60405180910390f35b6102ee60048036038101906102e99190613030565b610f5f565b6040516102fb9190612f34565b60405180910390f35b61030c610f8c565b604051610319919061308e565b60405180910390f35b61033c600480360381019061033791906130e2565b610fb0565b6040516103499190612f34565b60405180910390f35b61036c60048036038101906103679190613132565b611019565b6040516103799190612f34565b60405180910390f35b61039c60048036038101906103979190613030565b6111ee565b6040516103a991906131a6565b60405180910390f35b6103cc60048036038101906103c791906131bf565b611218565b6040516103d99190613204565b60405180910390f35b6103ea611235565b6040516103f79190613238565b60405180910390f35b61041a6004803603810190610415919061327b565b61123a565b005b61042461129a565b60405161043191906132d9565b60405180910390f35b610454600480360381019061044f91906132f2565b6112be565b005b610470600480360381019061046b9190613030565b6115dc565b60405161047d91906131a6565b60405180910390f35b61048e6115fc565b005b61049861160f565b6040516104a59190612f34565b60405180910390f35b6104c860048036038101906104c3919061331d565b61161b565b6040516104d692919061335b565b60405180910390f35b6104f960048036038101906104f4919061331d565b611681565b60405161050792919061335b565b60405180910390f35b6105186116ac565b6040516105259190613391565b60405180910390f35b610548600480360381019061054391906133aa565b6116d3565b005b610564600480360381019061055f9190613030565b611711565b6040516105759594939291906133e8565b60405180910390f35b61059860048036038101906105939190613030565b6118a8565b005b6105a2611a5c565b6040516105af9190612f34565b60405180910390f35b6105d260048036038101906105cd9190613030565b611a68565b6040516105df9190613659565b60405180910390f35b61060260048036038101906105fd9190613679565b611d1c565b005b61061e600480360381019061061991906132f2565b6120ae565b60405161062b919061379f565b60405180910390f35b61064e600480360381019061064991906132f2565b612214565b60405161066399989796959493929190613807565b60405180910390f35b610686600480360381019061068191906132f2565b61230f565b6040516106939190613204565b60405180910390f35b6106b660048036038101906106b19190613030565b612338565b6040516106ca9897969594939291906138ff565b60405180910390f35b6106db612580565b6040516106e89190613995565b60405180910390f35b61070b60048036038101906107069190613030565b612586565b005b610727600480360381019061072291906131bf565b612747565b005b5f83610734816127cb565b8461073e8161281e565b5f60035f8881526020019081526020015f209050806005015f8154610762906139db565b91905081905593505f7f000000000000000000000000000000000000000000000000000000000000000090505f88866040516020016107a292919061335b565b604051602081830303815290604052805190602001205f1c90508073ffffffffffffffffffffffffffffffffffffffff168273ffffffffffffffffffffffffffffffffffffffff1611156107fb57808280925081935050505b5f6040518060a001604052808473ffffffffffffffffffffffffffffffffffffffff1681526020018373ffffffffffffffffffffffffffffffffffffffff168152602001610bb862ffffff168152602001603c60020b81526020017f000000000000000000000000000000000000000000000000000000000000000073ffffffffffffffffffffffffffffffffffffffff1681525090505f61089c82612882565b90508060075f8d81526020019081526020015f205f8a81526020019081526020015f20819055507f000000000000000000000000000000000000000000000000000000000000000073ffffffffffffffffffffffffffffffffffffffff166392d1dd43838d8b306040518563ffffffff1660e01b81526004016109229493929190613a22565b5f604051808303815f87803b158015610939575f80fd5b505af115801561094b573d5f803e3d5ffd5b505050505f73__$a4140056dec69da5dcc4d560fefd4f49d3$__63d793618d670de0b6b3a76400006040518263ffffffff1660e01b815260040161098f9190613a75565b602060405180830381865af41580156109aa573d5f803e3d5ffd5b505050506040513d601f19601f820116820180604052508101906109ce9190613ab8565b90507f000000000000000000000000000000000000000000000000000000000000000073ffffffffffffffffffffffffffffffffffffffff16636276cbbe84836040518363ffffffff1660e01b8152600401610a2b929190613af2565b6020604051808303815f875af1158015610a47573d5f803e3d5ffd5b505050506040513d601f19601f82011682018060405250810190610a6b9190613b43565b506040518061010001604052808a81526020018d81526020017f000000000000000000000000000000000000000000000000000000000000000073ffffffffffffffffffffffffffffffffffffffff1681526020018481526020018c8c8080601f0160208091040260200160405190810160405280939291908181526020018383808284375f81840152601f19601f8201169050808301925050505050505081526020015f8152602001670de0b6b3a764000081526020016001151581525060045f8e81526020019081526020015f205f8b81526020019081526020015f205f820151815f0155602082015181600101556040820151816002015f6101000a81548173ffffffffffffffffffffffffffffffffffffffff021916908373ffffffffffffffffffffffffffffffffffffffff1602179055506060820151816003015f820151815f015f6101000a81548173ffffffffffffffffffffffffffffffffffffffff021916908373ffffffffffffffffffffffffffffffffffffffff1602179055506020820151816001015f6101000a81548173ffffffffffffffffffffffffffffffffffffffff021916908373ffffffffffffffffffffffffffffffffffffffff16021790555060408201518160010160146101000a81548162ffffff021916908362ffffff16021790555060608201518160010160176101000a81548162ffffff021916908360020b62ffffff1602179055506080820151816002015f6101000a81548173ffffffffffffffffffffffffffffffffffffffff021916908373ffffffffffffffffffffffffffffffffffffffff16021790555050506080820151816006019081610cdf9190613d8c565b5060a0820151816007015560c0820151816008015560e0820151816009015f6101000a81548160ff0219169083151502179055509050507f000000000000000000000000000000000000000000000000000000000000000073ffffffffffffffffffffffffffffffffffffffff16898d7f5a87c9f2014480a234b7b234d4a5030dbf144f77df5f98a6a78c3b614dbe0223868f8f604051610d8293929190613e95565b60405180910390a450505050505050509392505050565b5f8060045f8681526020019081526020015f205f8581526020019081526020015f2090507f000000000000000000000000000000000000000000000000000000000000000073ffffffffffffffffffffffffffffffffffffffff1663702a735882600301856040518363ffffffff1660e01b8152600401610e1b929190614035565b602060405180830381865afa158015610e36573d5f803e3d5ffd5b505050506040513d601f19601f82011682018060405250810190610e5a9190614070565b9150509392505050565b60025481565b7f000000000000000000000000000000000000000000000000000000000000000081565b5f8060045f8581526020019081526020015f205f8481526020019081526020015f2090505f7f000000000000000000000000000000000000000000000000000000000000000073ffffffffffffffffffffffffffffffffffffffff16632375d0c6836003016040518263ffffffff1660e01b8152600401610f0f919061409b565b60e060405180830381865afa158015610f2a573d5f803e3d5ffd5b505050506040513d601f19601f82011682018060405250810190610f4e91906141dc565b905080606001519250505092915050565b5f60045f8481526020019081526020015f205f8381526020019081526020015f2060080154905092915050565b7f000000000000000000000000000000000000000000000000000000000000000081565b5f60055f8581526020019081526020015f205f8373ffffffffffffffffffffffffffffffffffffffff1673ffffffffffffffffffffffffffffffffffffffff1681526020019081526020015f206002015f8481526020019081526020015f205490509392505050565b5f60025f8154611028906139db565b91905081905590506040518061012001604052808281526020013373ffffffffffffffffffffffffffffffffffffffff16815260200184848080601f0160208091040260200160405190810160405280939291908181526020018383808284375f81840152601f19601f8201169050808301925050505050505081526020015f81526020015f81526020015f81526020015f151581526020015f81526020014281525060035f8381526020019081526020015f205f820151815f01556020820151816001015f6101000a81548173ffffffffffffffffffffffffffffffffffffffff021916908373ffffffffffffffffffffffffffffffffffffffff160217905550604082015181600201908161113f9190613d8c565b50606082015181600301556080820151816004015560a0820151816005015560c0820151816006015f6101000a81548160ff02191690831515021790555060e0820151816007015561010082015181600801559050503373ffffffffffffffffffffffffffffffffffffffff16817fee63c9ac0843885cc3911d99fa1ffb02528c3220455bcebf62b83df90c49e1088585426040516111e093929190614207565b60405180910390a392915050565b5f60075f8481526020019081526020015f205f8381526020019081526020015f2054905092915050565b6006602052805f5260405f205f915054906101000a900460ff1681565b603c81565b61124261288e565b8060065f8473ffffffffffffffffffffffffffffffffffffffff1673ffffffffffffffffffffffffffffffffffffffff1681526020019081526020015f205f6101000a81548160ff0219169083151502179055505050565b7f000000000000000000000000000000000000000000000000000000000000000081565b6112c6612915565b806112d0816127cb565b5f60035f8481526020019081526020015f209050806006015f9054906101000a900460ff16611334576040517f08c379a000000000000000000000000000000000000000000000000000000000815260040161132b90614281565b60405180910390fd5b5f60055f8581526020019081526020015f205f3373ffffffffffffffffffffffffffffffffffffffff1673ffffffffffffffffffffffffffffffffffffffff1681526020019081526020015f2090505f815f0154116113c8576040517f08c379a00000000000000000000000000000000000000000000000000000000081526004016113bf906142e9565b60405180910390fd5b5f80826002015f856007015481526020019081526020015f205490505f81111561148f575f6113fb878660070154610e8e565b90505f73__$a4140056dec69da5dcc4d560fefd4f49d3$__630caee2ca848489600301546040518463ffffffff1660e01b815260040161143d93929190614307565b602060405180830381865af4158015611458573d5f803e3d5ffd5b505050506040513d601f19601f8201168201806040525081019061147c9190614070565b9050808461148a919061433c565b935050505b5f73__$a4140056dec69da5dcc4d560fefd4f49d3$__6389c8e276855f015486600101546706f05b59d3b200006040518463ffffffff1660e01b81526004016114da93929190614307565b602060405180830381865af41580156114f5573d5f803e3d5ffd5b505050506040513d601f19601f820116820180604052508101906115199190614070565b90508083611527919061433c565b92505f845f01819055505f84600101819055505f600190505b85600501548111611576575f856002015f8381526020019081526020015f2081905550808061156e906139db565b915050611540565b505f8311156115cb576115ca33847f000000000000000000000000000000000000000000000000000000000000000073ffffffffffffffffffffffffffffffffffffffff1661295b9092919063ffffffff16565b5b5050505050506115d96129da565b50565b6007602052815f5260405f20602052805f5260405f205f91509150505481565b61160461288e565b61160d5f6129e3565b565b670de0b6b3a764000081565b5f805f60055f8681526020019081526020015f205f8573ffffffffffffffffffffffffffffffffffffffff1673ffffffffffffffffffffffffffffffffffffffff1681526020019081526020015f209050805f0154816001015492509250509250929050565b6005602052815f5260405f20602052805f5260405f205f9150915050805f0154908060010154905082565b5f805f9054906101000a900473ffffffffffffffffffffffffffffffffffffffff16905090565b6116db61288e565b61170d6116e66116ac565b828473ffffffffffffffffffffffffffffffffffffffff1661295b9092919063ffffffff16565b5050565b5f805f805f8060045f8981526020019081526020015f205f8881526020019081526020015f2090505f7f000000000000000000000000000000000000000000000000000000000000000073ffffffffffffffffffffffffffffffffffffffff16632375d0c6836003016040518263ffffffff1660e01b8152600401611796919061409b565b60e060405180830381865afa1580156117b1573d5f803e3d5ffd5b505050506040513d601f19601f820116820180604052508101906117d591906141dc565b90507f000000000000000000000000000000000000000000000000000000000000000073ffffffffffffffffffffffffffffffffffffffff1663a4b588a1836003016040518263ffffffff1660e01b8152600401611833919061409b565b6040805180830381865afa15801561184d573d5f803e3d5ffd5b505050506040513d601f19601f82011682018060405250810190611871919061436f565b8094508195505050806060015181608001518260a00151801561189657508260c00151155b96509650965050509295509295909350565b6118b0612aa4565b816118ba816127cb565b82826118c68282612b6c565b846118d08161281e565b5f60035f8881526020019081526020015f2090506001816006015f6101000a81548160ff0219169083151502179055508581600701819055505f600190505b816005015481116119fe575f60045f8a81526020019081526020015f205f8381526020019081526020015f2090505f816009015f6101000a81548160ff0219169083151502179055505f88831490507f000000000000000000000000000000000000000000000000000000000000000073ffffffffffffffffffffffffffffffffffffffff1663f0ab1f7383600301836040518363ffffffff1660e01b81526004016119bc9291906143ad565b5f604051808303815f87803b1580156119d3575f80fd5b505af11580156119e5573d5f803e3d5ffd5b50505050505080806119f6906139db565b91505061190f565b503373ffffffffffffffffffffffffffffffffffffffff1686887f0322630f95237264ed54f6de008ae758b26e9f1b14271442bce257ea1dc654e28460030154604051611a4b9190612f34565b60405180910390a450505050505050565b6706f05b59d3b2000081565b611a70612cf6565b60045f8481526020019081526020015f205f8381526020019081526020015f20604051806101000160405290815f820154815260200160018201548152602001600282015f9054906101000a900473ffffffffffffffffffffffffffffffffffffffff1673ffffffffffffffffffffffffffffffffffffffff1673ffffffffffffffffffffffffffffffffffffffff168152602001600382016040518060a00160405290815f82015f9054906101000a900473ffffffffffffffffffffffffffffffffffffffff1673ffffffffffffffffffffffffffffffffffffffff1673ffffffffffffffffffffffffffffffffffffffff168152602001600182015f9054906101000a900473ffffffffffffffffffffffffffffffffffffffff1673ffffffffffffffffffffffffffffffffffffffff1673ffffffffffffffffffffffffffffffffffffffff1681526020016001820160149054906101000a900462ffffff1662ffffff1662ffffff1681526020016001820160179054906101000a900460020b60020b60020b8152602001600282015f9054906101000a900473ffffffffffffffffffffffffffffffffffffffff1673ffffffffffffffffffffffffffffffffffffffff1673ffffffffffffffffffffffffffffffffffffffff16815250508152602001600682018054611c6690613bc8565b80601f0160208091040260200160405190810160405280929190818152602001828054611c9290613bc8565b8015611cdd5780601f10611cb457610100808354040283529160200191611cdd565b820191905f5260205f20905b815481529060010190602001808311611cc057829003601f168201915b505050505081526020016007820154815260200160088201548152602001600982015f9054906101000a900460ff161515151581525050905092915050565b611d24612915565b83611d2e816127cb565b8484611d3a8282612b6c565b86611d448161281e565b5f8611611d86576040517f08c379a0000000000000000000000000000000000000000000000000000000008152600401611d7d90614444565b60405180910390fd5b5f60055f8a81526020019081526020015f205f3373ffffffffffffffffffffffffffffffffffffffff1673ffffffffffffffffffffffffffffffffffffffff1681526020019081526020015f209050868160010154611de5919061433c565b815f01541015611e2a576040517f08c379a0000000000000000000000000000000000000000000000000000000008152600401611e21906144ac565b60405180910390fd5b5f60045f8b81526020019081526020015f205f8a81526020019081526020015f209050806009015f9054906101000a900460ff16611e9d576040517f08c379a0000000000000000000000000000000000000000000000000000000008152600401611e9490614514565b60405180910390fd5b5f7f000000000000000000000000000000000000000000000000000000000000000073ffffffffffffffffffffffffffffffffffffffff166379036b7b83600301338c8c6040518563ffffffff1660e01b8152600401611f009493929190614532565b6020604051808303815f875af1158015611f1c573d5f803e3d5ffd5b505050506040513d601f19601f82011682018060405250810190611f409190614070565b9050816007015f815480929190611f56906139db565b91905055507f000000000000000000000000000000000000000000000000000000000000000073ffffffffffffffffffffffffffffffffffffffff166331e30225836003016040518263ffffffff1660e01b8152600401611fb7919061409b565b602060405180830381865afa158015611fd2573d5f803e3d5ffd5b505050506040513d601f19601f82011682018060405250810190611ff69190614070565b826008018190555088836001015f828254612011919061433c565b9250508190555080836002015f8c81526020019081526020015f205f82825461203a919061433c565b925050819055503373ffffffffffffffffffffffffffffffffffffffff168a8c7f6d1fd0f9901b2bad143ebc48c203fbc9dcd25ec827e03e18fc87e1d9f0b4071f8c85876008015460405161209193929190614576565b60405180910390a4505050505050506120a86129da565b50505050565b6120b6612d53565b60035f8381526020019081526020015f20604051806101200160405290815f8201548152602001600182015f9054906101000a900473ffffffffffffffffffffffffffffffffffffffff1673ffffffffffffffffffffffffffffffffffffffff1673ffffffffffffffffffffffffffffffffffffffff16815260200160028201805461214190613bc8565b80601f016020809104026020016040519081016040528092919081815260200182805461216d90613bc8565b80156121b85780601f1061218f576101008083540402835291602001916121b8565b820191905f5260205f20905b81548152906001019060200180831161219b57829003601f168201915b50505050508152602001600382015481526020016004820154815260200160058201548152602001600682015f9054906101000a900460ff16151515158152602001600782015481526020016008820154815250509050919050565b6003602052805f5260405f205f91509050805f015490806001015f9054906101000a900473ffffffffffffffffffffffffffffffffffffffff169080600201805461225e90613bc8565b80601f016020809104026020016040519081016040528092919081815260200182805461228a90613bc8565b80156122d55780601f106122ac576101008083540402835291602001916122d5565b820191905f5260205f20905b8154815290600101906020018083116122b857829003601f168201915b505050505090806003015490806004015490806005015490806006015f9054906101000a900460ff16908060070154908060080154905089565b5f60035f8381526020019081526020015f206006015f9054906101000a900460ff169050919050565b6004602052815f5260405f20602052805f5260405f205f9150915050805f015490806001015490806002015f9054906101000a900473ffffffffffffffffffffffffffffffffffffffff1690806003016040518060a00160405290815f82015f9054906101000a900473ffffffffffffffffffffffffffffffffffffffff1673ffffffffffffffffffffffffffffffffffffffff1673ffffffffffffffffffffffffffffffffffffffff168152602001600182015f9054906101000a900473ffffffffffffffffffffffffffffffffffffffff1673ffffffffffffffffffffffffffffffffffffffff1673ffffffffffffffffffffffffffffffffffffffff1681526020016001820160149054906101000a900462ffffff1662ffffff1662ffffff1681526020016001820160179054906101000a900460020b60020b60020b8152602001600282015f9054906101000a900473ffffffffffffffffffffffffffffffffffffffff1673ffffffffffffffffffffffffffffffffffffffff1673ffffffffffffffffffffffffffffffffffffffff1681525050908060060180546124e190613bc8565b80601f016020809104026020016040519081016040528092919081815260200182805461250d90613bc8565b80156125585780601f1061252f57610100808354040283529160200191612558565b820191905f5260205f20905b81548152906001019060200180831161253b57829003601f168201915b505050505090806007015490806008015490806009015f9054906101000a900460ff16905088565b610bb881565b61258e612915565b81612598816127cb565b826125a28161281e565b5f83116125e4576040517f08c379a00000000000000000000000000000000000000000000000000000000081526004016125db9061461b565b60405180910390fd5b6126313330857f000000000000000000000000000000000000000000000000000000000000000073ffffffffffffffffffffffffffffffffffffffff16612bd2909392919063ffffffff16565b5f8390505f60035f8781526020019081526020015f20905084816003015f82825461265c919061433c565b9250508190555081816004015f828254612676919061433c565b925050819055505f60055f8881526020019081526020015f205f3373ffffffffffffffffffffffffffffffffffffffff1673ffffffffffffffffffffffffffffffffffffffff1681526020019081526020015f20905082815f015f8282546126de919061433c565b925050819055503373ffffffffffffffffffffffffffffffffffffffff16877ff7748ed362ae6427631c778e495f7eb63b00c0794b6066744a0cba2c59135a65888660405161272e92919061335b565b60405180910390a350505050506127436129da565b5050565b61274f61288e565b5f73ffffffffffffffffffffffffffffffffffffffff168173ffffffffffffffffffffffffffffffffffffffff16036127bf575f6040517f1e4fbdf70000000000000000000000000000000000000000000000000000000081526004016127b69190613391565b60405180910390fd5b6127c8816129e3565b50565b5f811180156127dc57506002548111155b61281b576040517f08c379a0000000000000000000000000000000000000000000000000000000008152600401612812906146a9565b60405180910390fd5b50565b60035f8281526020019081526020015f206006015f9054906101000a900460ff161561287f576040517f08c379a000000000000000000000000000000000000000000000000000000000815260040161287690614737565b60405180910390fd5b50565b5f60a082209050919050565b612896612c54565b73ffffffffffffffffffffffffffffffffffffffff166128b46116ac565b73ffffffffffffffffffffffffffffffffffffffff1614612913576128d7612c54565b6040517f118cdaa700000000000000000000000000000000000000000000000000000000815260040161290a9190613391565b60405180910390fd5b565b600260015403612951576040517f3ee5aeb500000000000000000000000000000000000000000000000000000000815260040160405180910390fd5b6002600181905550565b6129d5838473ffffffffffffffffffffffffffffffffffffffff1663a9059cbb858560405160240161298e929190614755565b604051602081830303815290604052915060e01b6020820180517bffffffffffffffffffffffffffffffffffffffffffffffffffffffff8381831617835250505050612c5b565b505050565b60018081905550565b5f805f9054906101000a900473ffffffffffffffffffffffffffffffffffffffff169050815f806101000a81548173ffffffffffffffffffffffffffffffffffffffff021916908373ffffffffffffffffffffffffffffffffffffffff1602179055508173ffffffffffffffffffffffffffffffffffffffff168173ffffffffffffffffffffffffffffffffffffffff167f8be0079c531659141344cd1fd0a4f28419497f9722a3daafe3b4186f6b6457e060405160405180910390a35050565b60065f3373ffffffffffffffffffffffffffffffffffffffff1673ffffffffffffffffffffffffffffffffffffffff1681526020019081526020015f205f9054906101000a900460ff1680612b2b5750612afc6116ac565b73ffffffffffffffffffffffffffffffffffffffff163373ffffffffffffffffffffffffffffffffffffffff16145b612b6a576040517f08c379a0000000000000000000000000000000000000000000000000000000008152600401612b61906147c6565b60405180910390fd5b565b5f81118015612b8f575060035f8381526020019081526020015f20600501548111155b612bce576040517f08c379a0000000000000000000000000000000000000000000000000000000008152600401612bc590614854565b60405180910390fd5b5050565b612c4e848573ffffffffffffffffffffffffffffffffffffffff166323b872dd868686604051602401612c0793929190614872565b604051602081830303815290604052915060e01b6020820180517bffffffffffffffffffffffffffffffffffffffffffffffffffffffff8381831617835250505050612c5b565b50505050565b5f33905090565b5f8060205f8451602086015f885af180612c7a576040513d5f823e3d81fd5b3d92505f519150505f8214612c93576001811415612cae565b5f8473ffffffffffffffffffffffffffffffffffffffff163b145b15612cf057836040517f5274afe7000000000000000000000000000000000000000000000000000000008152600401612ce79190613391565b60405180910390fd5b50505050565b6040518061010001604052805f81526020015f81526020015f73ffffffffffffffffffffffffffffffffffffffff168152602001612d32612daf565b8152602001606081526020015f81526020015f81526020015f151581525090565b6040518061012001604052805f81526020015f73ffffffffffffffffffffffffffffffffffffffff168152602001606081526020015f81526020015f81526020015f81526020015f151581526020015f81526020015f81525090565b6040518060a001604052805f73ffffffffffffffffffffffffffffffffffffffff1681526020015f73ffffffffffffffffffffffffffffffffffffffff1681526020015f62ffffff1681526020015f60020b81526020015f73ffffffffffffffffffffffffffffffffffffffff1681525090565b5f604051905090565b5f80fd5b5f80fd5b5f819050919050565b612e4681612e34565b8114612e50575f80fd5b50565b5f81359050612e6181612e3d565b92915050565b5f80fd5b5f80fd5b5f80fd5b5f8083601f840112612e8857612e87612e67565b5b8235905067ffffffffffffffff811115612ea557612ea4612e6b565b5b602083019150836001820283011115612ec157612ec0612e6f565b5b9250929050565b5f805f60408486031215612edf57612ede612e2c565b5b5f612eec86828701612e53565b935050602084013567ffffffffffffffff811115612f0d57612f0c612e30565b5b612f1986828701612e73565b92509250509250925092565b612f2e81612e34565b82525050565b5f602082019050612f475f830184612f25565b92915050565b5f805f60608486031215612f6457612f63612e2c565b5b5f612f7186828701612e53565b9350506020612f8286828701612e53565b9250506040612f9386828701612e53565b9150509250925092565b5f73ffffffffffffffffffffffffffffffffffffffff82169050919050565b5f819050919050565b5f612fdf612fda612fd584612f9d565b612fbc565b612f9d565b9050919050565b5f612ff082612fc5565b9050919050565b5f61300182612fe6565b9050919050565b61301181612ff7565b82525050565b5f60208201905061302a5f830184613008565b92915050565b5f806040838503121561304657613045612e2c565b5b5f61305385828601612e53565b925050602061306485828601612e53565b9150509250929050565b5f61307882612fe6565b9050919050565b6130888161306e565b82525050565b5f6020820190506130a15f83018461307f565b92915050565b5f6130b182612f9d565b9050919050565b6130c1816130a7565b81146130cb575f80fd5b50565b5f813590506130dc816130b8565b92915050565b5f805f606084860312156130f9576130f8612e2c565b5b5f61310686828701612e53565b935050602061311786828701612e53565b9250506040613128868287016130ce565b9150509250925092565b5f806020838503121561314857613147612e2c565b5b5f83013567ffffffffffffffff81111561316557613164612e30565b5b61317185828601612e73565b92509250509250929050565b5f819050919050565b5f6131908261317d565b9050919050565b6131a081613186565b82525050565b5f6020820190506131b95f830184613197565b92915050565b5f602082840312156131d4576131d3612e2c565b5b5f6131e1848285016130ce565b91505092915050565b5f8115159050919050565b6131fe816131ea565b82525050565b5f6020820190506132175f8301846131f5565b92915050565b5f8160020b9050919050565b6132328161321d565b82525050565b5f60208201905061324b5f830184613229565b92915050565b61325a816131ea565b8114613264575f80fd5b50565b5f8135905061327581613251565b92915050565b5f806040838503121561329157613290612e2c565b5b5f61329e858286016130ce565b92505060206132af85828601613267565b9150509250929050565b5f6132c382612fe6565b9050919050565b6132d3816132b9565b82525050565b5f6020820190506132ec5f8301846132ca565b92915050565b5f6020828403121561330757613306612e2c565b5b5f61331484828501612e53565b91505092915050565b5f806040838503121561333357613332612e2c565b5b5f61334085828601612e53565b9250506020613351858286016130ce565b9150509250929050565b5f60408201905061336e5f830185612f25565b61337b6020830184612f25565b9392505050565b61338b816130a7565b82525050565b5f6020820190506133a45f830184613382565b92915050565b5f80604083850312156133c0576133bf612e2c565b5b5f6133cd858286016130ce565b92505060206133de85828601612e53565b9150509250929050565b5f60a0820190506133fb5f830188612f25565b6134086020830187612f25565b61341560408301866131f5565b6134226060830185612f25565b61342f6080830184612f25565b9695505050505050565b61344281612e34565b82525050565b613451816130a7565b82525050565b5f61346182612fe6565b9050919050565b61347181613457565b82525050565b5f62ffffff82169050919050565b61348e81613477565b82525050565b61349d8161321d565b82525050565b5f6134ad82612fe6565b9050919050565b6134bd816134a3565b82525050565b60a082015f8201516134d75f850182613468565b5060208201516134ea6020850182613468565b5060408201516134fd6040850182613485565b5060608201516135106060850182613494565b50608082015161352360808501826134b4565b50505050565b5f81519050919050565b5f82825260208201905092915050565b8281835e5f83830152505050565b5f601f19601f8301169050919050565b5f61356b82613529565b6135758185613533565b9350613585818560208601613543565b61358e81613551565b840191505092915050565b6135a2816131ea565b82525050565b5f61018083015f8301516135be5f860182613439565b5060208301516135d16020860182613439565b5060408301516135e46040860182613448565b5060608301516135f760608601826134c3565b5060808301518482036101008601526136108282613561565b91505060a0830151613626610120860182613439565b5060c083015161363a610140860182613439565b5060e083015161364e610160860182613599565b508091505092915050565b5f6020820190508181035f83015261367181846135a8565b905092915050565b5f805f806080858703121561369157613690612e2c565b5b5f61369e87828801612e53565b94505060206136af87828801612e53565b93505060406136c087828801612e53565b92505060606136d187828801612e53565b91505092959194509250565b5f61012083015f8301516136f35f860182613439565b5060208301516137066020860182613448565b506040830151848203604086015261371e8282613561565b91505060608301516137336060860182613439565b5060808301516137466080860182613439565b5060a083015161375960a0860182613439565b5060c083015161376c60c0860182613599565b5060e083015161377f60e0860182613439565b50610100830151613794610100860182613439565b508091505092915050565b5f6020820190508181035f8301526137b781846136dd565b905092915050565b5f82825260208201905092915050565b5f6137d982613529565b6137e381856137bf565b93506137f3818560208601613543565b6137fc81613551565b840191505092915050565b5f6101208201905061381b5f83018c612f25565b613828602083018b613382565b818103604083015261383a818a6137cf565b90506138496060830189612f25565b6138566080830188612f25565b61386360a0830187612f25565b61387060c08301866131f5565b61387d60e0830185612f25565b61388b610100830184612f25565b9a9950505050505050505050565b60a082015f8201516138ad5f850182613468565b5060208201516138c06020850182613468565b5060408201516138d36040850182613485565b5060608201516138e66060850182613494565b5060808201516138f960808501826134b4565b50505050565b5f610180820190506139135f83018b612f25565b613920602083018a612f25565b61392d6040830189613382565b61393a6060830188613899565b81810361010083015261394d81876137cf565b905061395d610120830186612f25565b61396b610140830185612f25565b6139796101608301846131f5565b9998505050505050505050565b61398f81613477565b82525050565b5f6020820190506139a85f830184613986565b92915050565b7f4e487b71000000000000000000000000000000000000000000000000000000005f52601160045260245ffd5b5f6139e582612e34565b91507fffffffffffffffffffffffffffffffffffffffffffffffffffffffffffffffff8203613a1757613a166139ae565b5b600182019050919050565b5f61010082019050613a365f830187613899565b613a4360a0830186612f25565b613a5060c0830185612f25565b613a5d60e0830184613382565b95945050505050565b613a6f81612e34565b82525050565b5f602082019050613a885f830184613a66565b92915050565b613a9781612f9d565b8114613aa1575f80fd5b50565b5f81519050613ab281613a8e565b92915050565b5f60208284031215613acd57613acc612e2c565b5b5f613ada84828501613aa4565b91505092915050565b613aec81612f9d565b82525050565b5f60c082019050613b055f830185613899565b613b1260a0830184613ae3565b9392505050565b613b228161321d565b8114613b2c575f80fd5b50565b5f81519050613b3d81613b19565b92915050565b5f60208284031215613b5857613b57612e2c565b5b5f613b6584828501613b2f565b91505092915050565b7f4e487b71000000000000000000000000000000000000000000000000000000005f52604160045260245ffd5b7f4e487b71000000000000000000000000000000000000000000000000000000005f52602260045260245ffd5b5f6002820490506001821680613bdf57607f821691505b602082108103613bf257613bf1613b9b565b5b50919050565b5f819050815f5260205f209050919050565b5f6020601f8301049050919050565b5f82821b905092915050565b5f60088302613c547fffffffffffffffffffffffffffffffffffffffffffffffffffffffffffffffff82613c19565b613c5e8683613c19565b95508019841693508086168417925050509392505050565b5f613c90613c8b613c8684612e34565b612fbc565b612e34565b9050919050565b5f819050919050565b613ca983613c76565b613cbd613cb582613c97565b848454613c25565b825550505050565b5f90565b613cd1613cc5565b613cdc818484613ca0565b505050565b5b81811015613cff57613cf45f82613cc9565b600181019050613ce2565b5050565b601f821115613d4457613d1581613bf8565b613d1e84613c0a565b81016020851015613d2d578190505b613d41613d3985613c0a565b830182613ce1565b50505b505050565b5f82821c905092915050565b5f613d645f1984600802613d49565b1980831691505092915050565b5f613d7c8383613d55565b9150826002028217905092915050565b613d9582613529565b67ffffffffffffffff811115613dae57613dad613b6e565b5b613db88254613bc8565b613dc3828285613d03565b5f60209050601f831160018114613df4575f8415613de2578287015190505b613dec8582613d71565b865550613e53565b601f198416613e0286613bf8565b5f5b82811015613e2957848901518255600182019150602085019450602081019050613e04565b86831015613e465784890151613e42601f891682613d55565b8355505b6001600288020188555050505b505050505050565b828183375f83830152505050565b5f613e7483856137bf565b9350613e81838584613e5b565b613e8a83613551565b840190509392505050565b5f60c082019050613ea85f830186613899565b81810360a0830152613ebb818486613e69565b9050949350505050565b5f815f1c9050919050565b5f73ffffffffffffffffffffffffffffffffffffffff82169050919050565b5f613f01613efc83613ec5565b613ed0565b9050919050565b5f8160a01c9050919050565b5f62ffffff82169050919050565b5f613f34613f2f83613f08565b613f14565b9050919050565b5f8160b81c9050919050565b5f8160020b9050919050565b5f613f65613f6083613f3b565b613f47565b9050919050565b5f73ffffffffffffffffffffffffffffffffffffffff82169050919050565b5f613f9d613f9883613ec5565b613f6c565b9050919050565b60a082015f808301549050613fb881613eef565b613fc45f860182613468565b5060018301549050613fd581613eef565b613fe26020860182613468565b50613fec81613f22565b613ff96040860182613485565b5061400381613f53565b6140106060860182613494565b506002830154905061402181613f8b565b61402e60808601826134b4565b5050505050565b5f60c0820190506140485f830185613fa4565b61405560a0830184612f25565b9392505050565b5f8151905061406a81612e3d565b92915050565b5f6020828403121561408557614084612e2c565b5b5f6140928482850161405c565b91505092915050565b5f60a0820190506140ae5f830184613fa4565b92915050565b5f80fd5b6140c182613551565b810181811067ffffffffffffffff821117156140e0576140df613b6e565b5b80604052505050565b5f6140f2612e23565b90506140fe82826140b8565b919050565b5f81519050614111816130b8565b92915050565b5f8151905061412581613251565b92915050565b5f60e082840312156141405761413f6140b4565b5b61414a60e06140e9565b90505f6141598482850161405c565b5f83015250602061416c8482850161405c565b602083015250604061418084828501614103565b60408301525060606141948482850161405c565b60608301525060806141a88482850161405c565b60808301525060a06141bc84828501614117565b60a08301525060c06141d084828501614117565b60c08301525092915050565b5f60e082840312156141f1576141f0612e2c565b5b5f6141fe8482850161412b565b91505092915050565b5f6040820190508181035f830152614220818587613e69565b905061422f6020830184612f25565b949350505050565b7f514d466163746f72793a206465636973696f6e206e6f7420736574746c6564005f82015250565b5f61426b601f836137bf565b915061427682614237565b602082019050919050565b5f6020820190508181035f8301526142988161425f565b9050919050565b7f514d466163746f72793a206e6f20706f736974696f6e20666f756e64000000005f82015250565b5f6142d3601c836137bf565b91506142de8261429f565b602082019050919050565b5f6020820190508181035f830152614300816142c7565b9050919050565b5f60608201905061431a5f830186613a66565b6143276020830185613a66565b6143346040830184613a66565b949350505050565b5f61434682612e34565b915061435183612e34565b9250828201905080821115614369576143686139ae565b5b92915050565b5f806040838503121561438557614384612e2c565b5b5f6143928582860161405c565b92505060206143a38582860161405c565b9150509250929050565b5f60c0820190506143c05f830185613fa4565b6143cd60a08301846131f5565b9392505050565b7f514d466163746f72793a2063726564697473206d7573742062652067726561745f8201527f6572207468616e20300000000000000000000000000000000000000000000000602082015250565b5f61442e6029836137bf565b9150614439826143d4565b604082019050919050565b5f6020820190508181035f83015261445b81614422565b9050919050565b7f514d466163746f72793a20696e73756666696369656e742063726564697473005f82015250565b5f614496601f836137bf565b91506144a182614462565b602082019050919050565b5f6020820190508181035f8301526144c38161448a565b9050919050565b7f514d466163746f72793a2070726f706f73616c206e6f742061637469766500005f82015250565b5f6144fe601e836137bf565b9150614509826144ca565b602082019050919050565b5f6020820190508181035f83015261452b816144f2565b9050919050565b5f610100820190506145465f830187613fa4565b61455360a0830186613382565b61456060c0830185612f25565b61456d60e0830184612f25565b95945050505050565b5f6060820190506145895f830186612f25565b6145966020830185612f25565b6145a36040830184612f25565b949350505050565b7f514d466163746f72793a20616d6f756e74206d757374206265206772656174655f8201527f72207468616e2030000000000000000000000000000000000000000000000000602082015250565b5f6146056028836137bf565b9150614610826145ab565b604082019050919050565b5f6020820190508181035f830152614632816145f9565b9050919050565b7f514d466163746f72793a206465636973696f6e20646f6573206e6f74206578695f8201527f7374000000000000000000000000000000000000000000000000000000000000602082015250565b5f6146936022836137bf565b915061469e82614639565b604082019050919050565b5f6020820190508181035f8301526146c081614687565b9050919050565b7f514d466163746f72793a206465636973696f6e20616c726561647920736574745f8201527f6c65640000000000000000000000000000000000000000000000000000000000602082015250565b5f6147216023836137bf565b915061472c826146c7565b604082019050919050565b5f6020820190508181035f83015261474e81614715565b9050919050565b5f6040820190506147685f830185613382565b6147756020830184612f25565b9392505050565b7f514d466163746f72793a206e6f742061646d696e0000000000000000000000005f82015250565b5f6147b06014836137bf565b91506147bb8261477c565b602082019050919050565b5f6020820190508181035f8301526147dd816147a4565b9050919050565b7f514d466163746f72793a2070726f706f73616c20646f6573206e6f74206578695f8201527f7374000000000000000000000000000000000000000000000000000000000000602082015250565b5f61483e6022836137bf565b9150614849826147e4565b604082019050919050565b5f6020820190508181035f83015261486b81614832565b9050919050565b5f6060820190506148855f830186613382565b6148926020830185613382565b61489f6040830184612f25565b94935050505056fea26469706673582212201c1b59f8b91b9fa0fea7f2a6297d4ce7356ab83a8703183a9ab440cffbbcac9064736f6c634300081a0033","linkReferences":{"src/utils/MathUtils.sol":{"MathUtils":[{"start":3395,"length":20},{"start":6129,"length":20},{"start":6275,"length":20}]}}},"methodIdentifiers":{"DEPOSIT_TOKEN()":"13f66587","INITIAL_PRICE()":"7c5e2795","POOL_FEE()":"dd1b9c4a","POOL_MANAGER()":"62308e85","QUANTUM_HOOK()":"2ba0a6e3","REFUND_RATE()":"9d925fc8","TICK_SPACING()":"46ca626b","admins(address)":"429b62e5","calculateTokensOut(uint256,uint256,uint256)":"0818ec8a","claimWinnings(uint256)":"677bd9ff","createDecision(string)":"3900f165","createProposal(uint256,string)":"02d52fa4","decisionCounter()":"12064caf","decisions(uint256)":"b829df82","deposit(uint256,uint256)":"e2bbb158","emergencyRecover(address,uint256)":"9639011e","getCurrentProposalSupply(uint256,uint256)":"2153d2bb","getDecision(uint256)":"af754848","getProposal(uint256,uint256)":"aba21009","getProposalDetails(uint256,uint256)":"97decb3f","getProposalPoolId(uint256,uint256)":"3f693e63","getProposalPrice(uint256,uint256)":"27d3cf03","getUserPosition(uint256,address)":"869da9db","getUserProposalTokens(uint256,uint256,address)":"313c0f01","isDecisionSettled(uint256)":"c0adedc9","owner()":"8da5cb5b","proposalPools(uint256,uint256)":"69138ea9","proposals(uint256,uint256)":"c2cfee27","renounceOwnership()":"715018a6","setAdmin(address,bool)":"4b0bddd2","settle(uint256,uint256)":"9a9c29f6","trade(uint256,uint256,uint256,uint256)":"ad3a39b0","transferOwnership(address)":"f2fde38b","userPositions(uint256,address)":"8ae907f0"},"id":80}