{"abi":[{"type":"constructor","inputs":[{"name":"_poolManager","type":"address","internalType":"contract IPoolManager"},{"name":"_initialOwner","type":"address","internalType":"address"}],"stateMutability":"nonpayable"},{"type":"function","name":"INITIAL_VIRTUAL_LIQUIDITY","inputs":[],"outputs":[{"name":"","type":"uint256","internalType":"uint256"}],"stateMutability":"view"},{"type":"function","name":"POOL_MANAGER","inputs":[],"outputs":[{"name":"","type":"address","internalType":"contract IPoolManager"}],"stateMutability":"view"},{"type":"function","name":"afterAddLiquidity","inputs":[{"name":"","type":"address","internalType":"address"},{"name":"","type":"tuple","internalType":"struct PoolKey","components":[{"name":"currency0","type":"address","internalType":"Currency"},{"name":"currency1","type":"address","internalType":"Currency"},{"name":"fee","type":"uint24","internalType":"uint24"},{"name":"tickSpacing","type":"int24","internalType":"int24"},{"name":"hooks","type":"address","internalType":"contract IHooks"}]},{"name":"","type":"tuple","internalType":"struct IPoolManager.ModifyLiquidityParams","components":[{"name":"tickLower","type":"int24","internalType":"int24"},{"name":"tickUpper","type":"int24","internalType":"int24"},{"name":"liquidityDelta","type":"int256","internalType":"int256"},{"name":"salt","type":"bytes32","internalType":"bytes32"}]},{"name":"","type":"int256","internalType":"BalanceDelta"},{"name":"","type":"int256","internalType":"BalanceDelta"},{"name":"","type":"bytes","internalType":"bytes"}],"outputs":[{"name":"","type":"bytes4","internalType":"bytes4"},{"name":"","type":"int256","internalType":"BalanceDelta"}],"stateMutability":"nonpayable"},{"type":"function","name":"afterDonate","inputs":[{"name":"","type":"address","internalType":"address"},{"name":"","type":"tuple","internalType":"struct PoolKey","components":[{"name":"currency0","type":"address","internalType":"Currency"},{"name":"currency1","type":"address","internalType":"Currency"},{"name":"fee","type":"uint24","internalType":"uint24"},{"name":"tickSpacing","type":"int24","internalType":"int24"},{"name":"hooks","type":"address","internalType":"contract IHooks"}]},{"name":"","type":"uint256","internalType":"uint256"},{"name":"","type":"uint256","internalType":"uint256"},{"name":"","type":"bytes","internalType":"bytes"}],"outputs":[{"name":"","type":"bytes4","internalType":"bytes4"}],"stateMutability":"nonpayable"},{"type":"function","name":"afterInitialize","inputs":[{"name":"","type":"address","internalType":"address"},{"name":"","type":"tuple","internalType":"struct PoolKey","components":[{"name":"currency0","type":"address","internalType":"Currency"},{"name":"currency1","type":"address","internalType":"Currency"},{"name":"fee","type":"uint24","internalType":"uint24"},{"name":"tickSpacing","type":"int24","internalType":"int24"},{"name":"hooks","type":"address","internalType":"contract IHooks"}]},{"name":"","type":"uint160","internalType":"uint160"},{"name":"","type":"int24","internalType":"int24"}],"outputs":[{"name":"","type":"bytes4","internalType":"bytes4"}],"stateMutability":"nonpayable"},{"type":"function","name":"afterInitialize","inputs":[{"name":"","type":"address","internalType":"address"},{"name":"poolKey","type":"tuple","internalType":"struct PoolKey","components":[{"name":"currency0","type":"address","internalType":"Currency"},{"name":"currency1","type":"address","internalType":"Currency"},{"name":"fee","type":"uint24","internalType":"uint24"},{"name":"tickSpacing","type":"int24","internalType":"int24"},{"name":"hooks","type":"address","internalType":"contract IHooks"}]},{"name":"","type":"uint160","internalType":"uint160"},{"name":"","type":"int24","internalType":"int24"},{"name":"","type":"bytes","internalType":"bytes"}],"outputs":[{"name":"","type":"bytes4","internalType":"bytes4"}],"stateMutability":"nonpayable"},{"type":"function","name":"afterRemoveLiquidity","inputs":[{"name":"","type":"address","internalType":"address"},{"name":"","type":"tuple","internalType":"struct PoolKey","components":[{"name":"currency0","type":"address","internalType":"Currency"},{"name":"currency1","type":"address","internalType":"Currency"},{"name":"fee","type":"uint24","internalType":"uint24"},{"name":"tickSpacing","type":"int24","internalType":"int24"},{"name":"hooks","type":"address","internalType":"contract IHooks"}]},{"name":"","type":"tuple","internalType":"struct IPoolManager.ModifyLiquidityParams","components":[{"name":"tickLower","type":"int24","internalType":"int24"},{"name":"tickUpper","type":"int24","internalType":"int24"},{"name":"liquidityDelta","type":"int256","internalType":"int256"},{"name":"salt","type":"bytes32","internalType":"bytes32"}]},{"name":"","type":"int256","internalType":"BalanceDelta"},{"name":"","type":"int256","internalType":"BalanceDelta"},{"name":"","type":"bytes","internalType":"bytes"}],"outputs":[{"name":"","type":"bytes4","internalType":"bytes4"},{"name":"","type":"int256","internalType":"BalanceDelta"}],"stateMutability":"nonpayable"},{"type":"function","name":"afterSwap","inputs":[{"name":"","type":"address","internalType":"address"},{"name":"","type":"tuple","internalType":"struct PoolKey","components":[{"name":"currency0","type":"address","internalType":"Currency"},{"name":"currency1","type":"address","internalType":"Currency"},{"name":"fee","type":"uint24","internalType":"uint24"},{"name":"tickSpacing","type":"int24","internalType":"int24"},{"name":"hooks","type":"address","internalType":"contract IHooks"}]},{"name":"","type":"tuple","internalType":"struct IPoolManager.SwapParams","components":[{"name":"zeroForOne","type":"bool","internalType":"bool"},{"name":"amountSpecified","type":"int256","internalType":"int256"},{"name":"sqrtPriceLimitX96","type":"uint160","internalType":"uint160"}]},{"name":"","type":"int256","internalType":"BalanceDelta"},{"name":"","type":"bytes","internalType":"bytes"}],"outputs":[{"name":"","type":"bytes4","internalType":"bytes4"},{"name":"","type":"int128","internalType":"int128"}],"stateMutability":"pure"},{"type":"function","name":"authorizedFactories","inputs":[{"name":"","type":"address","internalType":"address"}],"outputs":[{"name":"","type":"bool","internalType":"bool"}],"stateMutability":"view"},{"type":"function","name":"beforeAddLiquidity","inputs":[{"name":"","type":"address","internalType":"address"},{"name":"","type":"tuple","internalType":"struct PoolKey","components":[{"name":"currency0","type":"address","internalType":"Currency"},{"name":"currency1","type":"address","internalType":"Currency"},{"name":"fee","type":"uint24","internalType":"uint24"},{"name":"tickSpacing","type":"int24","internalType":"int24"},{"name":"hooks","type":"address","internalType":"contract IHooks"}]},{"name":"","type":"tuple","internalType":"struct IPoolManager.ModifyLiquidityParams","components":[{"name":"tickLower","type":"int24","internalType":"int24"},{"name":"tickUpper","type":"int24","internalType":"int24"},{"name":"liquidityDelta","type":"int256","internalType":"int256"},{"name":"salt","type":"bytes32","internalType":"bytes32"}]},{"name":"","type":"bytes","internalType":"bytes"}],"outputs":[{"name":"","type":"bytes4","internalType":"bytes4"}],"stateMutability":"nonpayable"},{"type":"function","name":"beforeDonate","inputs":[{"name":"","type":"address","internalType":"address"},{"name":"","type":"tuple","internalType":"struct PoolKey","components":[{"name":"currency0","type":"address","internalType":"Currency"},{"name":"currency1","type":"address","internalType":"Currency"},{"name":"fee","type":"uint24","internalType":"uint24"},{"name":"tickSpacing","type":"int24","internalType":"int24"},{"name":"hooks","type":"address","internalType":"contract IHooks"}]},{"name":"","type":"uint256","internalType":"uint256"},{"name":"","type":"uint256","internalType":"uint256"},{"name":"","type":"bytes","internalType":"bytes"}],"outputs":[{"name":"","type":"bytes4","internalType":"bytes4"}],"stateMutability":"nonpayable"},{"type":"function","name":"beforeInitialize","inputs":[{"name":"","type":"address","internalType":"address"},{"name":"","type":"tuple","internalType":"struct PoolKey","components":[{"name":"currency0","type":"address","internalType":"Currency"},{"name":"currency1","type":"address","internalType":"Currency"},{"name":"fee","type":"uint24","internalType":"uint24"},{"name":"tickSpacing","type":"int24","internalType":"int24"},{"name":"hooks","type":"address","internalType":"contract IHooks"}]},{"name":"","type":"uint160","internalType":"uint160"}],"outputs":[{"name":"","type":"bytes4","internalType":"bytes4"}],"stateMutability":"nonpayable"},{"type":"function","name":"beforeRemoveLiquidity","inputs":[{"name":"","type":"address","internalType":"address"},{"name":"","type":"tuple","internalType":"struct PoolKey","components":[{"name":"currency0","type":"address","internalType":"Currency"},{"name":"currency1","type":"address","internalType":"Currency"},{"name":"fee","type":"uint24","internalType":"uint24"},{"name":"tickSpacing","type":"int24","internalType":"int24"},{"name":"hooks","type":"address","internalType":"contract IHooks"}]},{"name":"","type":"tuple","internalType":"struct IPoolManager.ModifyLiquidityParams","components":[{"name":"tickLower","type":"int24","internalType":"int24"},{"name":"tickUpper","type":"int24","internalType":"int24"},{"name":"liquidityDelta","type":"int256","internalType":"int256"},{"name":"salt","type":"bytes32","internalType":"bytes32"}]},{"name":"","type":"bytes","internalType":"bytes"}],"outputs":[{"name":"","type":"bytes4","internalType":"bytes4"}],"stateMutability":"nonpayable"},{"type":"function","name":"beforeSwap","inputs":[{"name":"","type":"address","internalType":"address"},{"name":"poolKey","type":"tuple","internalType":"struct PoolKey","components":[{"name":"currency0","type":"address","internalType":"Currency"},{"name":"currency1","type":"address","internalType":"Currency"},{"name":"fee","type":"uint24","internalType":"uint24"},{"name":"tickSpacing","type":"int24","internalType":"int24"},{"name":"hooks","type":"address","internalType":"contract IHooks"}]},{"name":"","type":"tuple","internalType":"struct IPoolManager.SwapParams","components":[{"name":"zeroForOne","type":"bool","internalType":"bool"},{"name":"amountSpecified","type":"int256","internalType":"int256"},{"name":"sqrtPriceLimitX96","type":"uint160","internalType":"uint160"}]},{"name":"","type":"bytes","internalType":"bytes"}],"outputs":[{"name":"","type":"bytes4","internalType":"bytes4"},{"name":"","type":"int256","internalType":"BeforeSwapDelta"},{"name":"","type":"uint24","internalType":"uint24"}],"stateMutability":"view"},{"type":"function","name":"calculateTokensOut","inputs":[{"name":"poolKey","type":"tuple","internalType":"struct PoolKey","components":[{"name":"currency0","type":"address","internalType":"Currency"},{"name":"currency1","type":"address","internalType":"Currency"},{"name":"fee","type":"uint24","internalType":"uint24"},{"name":"tickSpacing","type":"int24","internalType":"int24"},{"name":"hooks","type":"address","internalType":"contract IHooks"}]},{"name":"creditsIn","type":"uint256","internalType":"uint256"}],"outputs":[{"name":"tokensOut","type":"uint256","internalType":"uint256"}],"stateMutability":"view"},{"type":"function","name":"creditsReserves","inputs":[{"name":"","type":"bytes32","internalType":"PoolId"}],"outputs":[{"name":"","type":"uint256","internalType":"uint256"}],"stateMutability":"view"},{"type":"function","name":"emergencyUpdateReserves","inputs":[{"name":"poolKey","type":"tuple","internalType":"struct PoolKey","components":[{"name":"currency0","type":"address","internalType":"Currency"},{"name":"currency1","type":"address","internalType":"Currency"},{"name":"fee","type":"uint24","internalType":"uint24"},{"name":"tickSpacing","type":"int24","internalType":"int24"},{"name":"hooks","type":"address","internalType":"contract IHooks"}]},{"name":"newCreditsReserve","type":"uint256","internalType":"uint256"},{"name":"newTokensReserve","type":"uint256","internalType":"uint256"}],"outputs":[],"stateMutability":"nonpayable"},{"type":"function","name":"executeQuantumTrade","inputs":[{"name":"poolKey","type":"tuple","internalType":"struct PoolKey","components":[{"name":"currency0","type":"address","internalType":"Currency"},{"name":"currency1","type":"address","internalType":"Currency"},{"name":"fee","type":"uint24","internalType":"uint24"},{"name":"tickSpacing","type":"int24","internalType":"int24"},{"name":"hooks","type":"address","internalType":"contract IHooks"}]},{"name":"trader","type":"address","internalType":"address"},{"name":"creditsIn","type":"uint256","internalType":"uint256"},{"name":"minTokensOut","type":"uint256","internalType":"uint256"}],"outputs":[{"name":"tokensOut","type":"uint256","internalType":"uint256"}],"stateMutability":"nonpayable"},{"type":"function","name":"freezeProposalPool","inputs":[{"name":"poolKey","type":"tuple","internalType":"struct PoolKey","components":[{"name":"currency0","type":"address","internalType":"Currency"},{"name":"currency1","type":"address","internalType":"Currency"},{"name":"fee","type":"uint24","internalType":"uint24"},{"name":"tickSpacing","type":"int24","internalType":"int24"},{"name":"hooks","type":"address","internalType":"contract IHooks"}]},{"name":"isWinner","type":"bool","internalType":"bool"}],"outputs":[],"stateMutability":"nonpayable"},{"type":"function","name":"getCurrentPrice","inputs":[{"name":"poolKey","type":"tuple","internalType":"struct PoolKey","components":[{"name":"currency0","type":"address","internalType":"Currency"},{"name":"currency1","type":"address","internalType":"Currency"},{"name":"fee","type":"uint24","internalType":"uint24"},{"name":"tickSpacing","type":"int24","internalType":"int24"},{"name":"hooks","type":"address","internalType":"contract IHooks"}]}],"outputs":[{"name":"price","type":"uint256","internalType":"uint256"}],"stateMutability":"view"},{"type":"function","name":"getHookPermissions","inputs":[],"outputs":[{"name":"","type":"tuple","internalType":"struct Hooks.Permissions","components":[{"name":"beforeInitialize","type":"bool","internalType":"bool"},{"name":"afterInitialize","type":"bool","internalType":"bool"},{"name":"beforeAddLiquidity","type":"bool","internalType":"bool"},{"name":"afterAddLiquidity","type":"bool","internalType":"bool"},{"name":"beforeRemoveLiquidity","type":"bool","internalType":"bool"},{"name":"afterRemoveLiquidity","type":"bool","internalType":"bool"},{"name":"beforeSwap","type":"bool","internalType":"bool"},{"name":"afterSwap","type":"bool","internalType":"bool"},{"name":"beforeDonate","type":"bool","internalType":"bool"},{"name":"afterDonate","type":"bool","internalType":"bool"},{"name":"beforeSwapReturnDelta","type":"bool","internalType":"bool"},{"name":"afterSwapReturnDelta","type":"bool","internalType":"bool"},{"name":"afterAddLiquidityReturnDelta","type":"bool","internalType":"bool"},{"name":"afterRemoveLiquidityReturnDelta","type":"bool","internalType":"bool"}]}],"stateMutability":"pure"},{"type":"function","name":"getPoolFactory","inputs":[{"name":"poolKey","type":"tuple","internalType":"struct PoolKey","components":[{"name":"currency0","type":"address","internalType":"Currency"},{"name":"currency1","type":"address","internalType":"Currency"},{"name":"fee","type":"uint24","internalType":"uint24"},{"name":"tickSpacing","type":"int24","internalType":"int24"},{"name":"hooks","type":"address","internalType":"contract IHooks"}]}],"outputs":[{"name":"factory","type":"address","internalType":"address"}],"stateMutability":"view"},{"type":"function","name":"getPoolId","inputs":[{"name":"poolKey","type":"tuple","internalType":"struct PoolKey","components":[{"name":"currency0","type":"address","internalType":"Currency"},{"name":"currency1","type":"address","internalType":"Currency"},{"name":"fee","type":"uint24","internalType":"uint24"},{"name":"tickSpacing","type":"int24","internalType":"int24"},{"name":"hooks","type":"address","internalType":"contract IHooks"}]}],"outputs":[{"name":"poolId","type":"bytes32","internalType":"PoolId"}],"stateMutability":"pure"},{"type":"function","name":"getPoolMetadata","inputs":[{"name":"poolKey","type":"tuple","internalType":"struct PoolKey","components":[{"name":"currency0","type":"address","internalType":"Currency"},{"name":"currency1","type":"address","internalType":"Currency"},{"name":"fee","type":"uint24","internalType":"uint24"},{"name":"tickSpacing","type":"int24","internalType":"int24"},{"name":"hooks","type":"address","internalType":"contract IHooks"}]}],"outputs":[{"name":"metadata","type":"tuple","internalType":"struct IQuantumHook.PoolMetadata","components":[{"name":"decisionId","type":"uint256","internalType":"uint256"},{"name":"proposalId","type":"uint256","internalType":"uint256"},{"name":"factory","type":"address","internalType":"address"},{"name":"totalSupply","type":"uint256","internalType":"uint256"},{"name":"currentPrice","type":"uint256","internalType":"uint256"},{"name":"isActive","type":"bool","internalType":"bool"},{"name":"isFrozen","type":"bool","internalType":"bool"}]}],"stateMutability":"view"},{"type":"function","name":"getPoolReserves","inputs":[{"name":"poolKey","type":"tuple","internalType":"struct PoolKey","components":[{"name":"currency0","type":"address","internalType":"Currency"},{"name":"currency1","type":"address","internalType":"Currency"},{"name":"fee","type":"uint24","internalType":"uint24"},{"name":"tickSpacing","type":"int24","internalType":"int24"},{"name":"hooks","type":"address","internalType":"contract IHooks"}]}],"outputs":[{"name":"creditsReserve","type":"uint256","internalType":"uint256"},{"name":"tokensReserve","type":"uint256","internalType":"uint256"}],"stateMutability":"view"},{"type":"function","name":"isPoolActive","inputs":[{"name":"poolKey","type":"tuple","internalType":"struct PoolKey","components":[{"name":"currency0","type":"address","internalType":"Currency"},{"name":"currency1","type":"address","internalType":"Currency"},{"name":"fee","type":"uint24","internalType":"uint24"},{"name":"tickSpacing","type":"int24","internalType":"int24"},{"name":"hooks","type":"address","internalType":"contract IHooks"}]}],"outputs":[{"name":"isActive","type":"bool","internalType":"bool"}],"stateMutability":"view"},{"type":"function","name":"isPoolRegistered","inputs":[{"name":"poolKey","type":"tuple","internalType":"struct PoolKey","components":[{"name":"currency0","type":"address","internalType":"Currency"},{"name":"currency1","type":"address","internalType":"Currency"},{"name":"fee","type":"uint24","internalType":"uint24"},{"name":"tickSpacing","type":"int24","internalType":"int24"},{"name":"hooks","type":"address","internalType":"contract IHooks"}]}],"outputs":[{"name":"isRegistered","type":"bool","internalType":"bool"}],"stateMutability":"view"},{"type":"function","name":"owner","inputs":[],"outputs":[{"name":"","type":"address","internalType":"address"}],"stateMutability":"view"},{"type":"function","name":"poolMetadata","inputs":[{"name":"","type":"bytes32","internalType":"PoolId"}],"outputs":[{"name":"decisionId","type":"uint256","internalType":"uint256"},{"name":"proposalId","type":"uint256","internalType":"uint256"},{"name":"factory","type":"address","internalType":"address"},{"name":"totalSupply","type":"uint256","internalType":"uint256"},{"name":"currentPrice","type":"uint256","internalType":"uint256"},{"name":"isActive","type":"bool","internalType":"bool"},{"name":"isFrozen","type":"bool","internalType":"bool"}],"stateMutability":"view"},{"type":"function","name":"registerProposalPool","inputs":[{"name":"poolKey","type":"tuple","internalType":"struct PoolKey","components":[{"name":"currency0","type":"address","internalType":"Currency"},{"name":"currency1","type":"address","internalType":"Currency"},{"name":"fee","type":"uint24","internalType":"uint24"},{"name":"tickSpacing","type":"int24","internalType":"int24"},{"name":"hooks","type":"address","internalType":"contract IHooks"}]},{"name":"decisionId","type":"uint256","internalType":"uint256"},{"name":"proposalId","type":"uint256","internalType":"uint256"},{"name":"factory","type":"address","internalType":"address"}],"outputs":[],"stateMutability":"nonpayable"},{"type":"function","name":"renounceOwnership","inputs":[],"outputs":[],"stateMutability":"nonpayable"},{"type":"function","name":"setAuthorizedFactory","inputs":[{"name":"factory","type":"address","internalType":"address"},{"name":"authorized","type":"bool","internalType":"bool"}],"outputs":[],"stateMutability":"nonpayable"},{"type":"function","name":"tokensReserves","inputs":[{"name":"","type":"bytes32","internalType":"PoolId"}],"outputs":[{"name":"","type":"uint256","internalType":"uint256"}],"stateMutability":"view"},{"type":"function","name":"totalLiquidity","inputs":[{"name":"","type":"bytes32","internalType":"PoolId"}],"outputs":[{"name":"","type":"uint128","internalType":"uint128"}],"stateMutability":"view"},{"type":"function","name":"transferOwnership","inputs":[{"name":"newOwner","type":"address","internalType":"address"}],"outputs":[],"stateMutability":"nonpayable"},{"type":"event","name":"OwnershipTransferred","inputs":[{"name":"previousOwner","type":"address","indexed":true,"internalType":"address"},{"name":"newOwner","type":"address","indexed":true,"internalType":"address"}],"anonymous":false},{"type":"event","name":"ProposalPoolFrozen","inputs":[{"name":"decisionId","type":"uint256","indexed":true,"internalType":"uint256"},{"name":"proposalId","type":"uint256","indexed":true,"internalType":"uint256"},{"name":"isWinner","type":"bool","indexed":false,"internalType":"bool"}],"anonymous":false},{"type":"event","name":"ProposalPoolRegistered","inputs":[{"name":"decisionId","type":"uint256","indexed":true,"internalType":"uint256"},{"name":"proposalId","type":"uint256","indexed":true,"internalType":"uint256"},{"name":"poolKey","type":"tuple","indexed":false,"internalType":"struct PoolKey","components":[{"name":"currency0","type":"address","internalType":"Currency"},{"name":"currency1","type":"address","internalType":"Currency"},{"name":"fee","type":"uint24","internalType":"uint24"},{"name":"tickSpacing","type":"int24","internalType":"int24"},{"name":"hooks","type":"address","internalType":"contract IHooks"}]},{"name":"factory","type":"address","indexed":false,"internalType":"address"}],"anonymous":false},{"type":"event","name":"QuantumTradeExecuted","inputs":[{"name":"poolKey","type":"tuple","indexed":true,"internalType":"struct PoolKey","components":[{"name":"currency0","type":"address","internalType":"Currency"},{"name":"currency1","type":"address","internalType":"Currency"},{"name":"fee","type":"uint24","internalType":"uint24"},{"name":"tickSpacing","type":"int24","internalType":"int24"},{"name":"hooks","type":"address","internalType":"contract IHooks"}]},{"name":"trader","type":"address","indexed":true,"internalType":"address"},{"name":"creditsIn","type":"uint256","indexed":false,"internalType":"uint256"},{"name":"tokensOut","type":"uint256","indexed":false,"internalType":"uint256"}],"anonymous":false},{"type":"error","name":"HookNotImplemented","inputs":[]},{"type":"error","name":"OwnableInvalidOwner","inputs":[{"name":"owner","type":"address","internalType":"address"}]},{"type":"error","name":"OwnableUnauthorizedAccount","inputs":[{"name":"account","type":"address","internalType":"address"}]},{"type":"error","name":"ReentrancyGuardReentrantCall","inputs":[]}],"bytecode":{"object":"0x60a060405234801561000f575f80fd5b506040516139a93803806139a98339818101604052810190610031919061024e565b805f73ffffffffffffffffffffffffffffffffffffffff168173ffffffffffffffffffffffffffffffffffffffff16036100a2575f6040517f1e4fbdf7000000000000000000000000000000000000000000000000000000008152600401610099919061029b565b60405180910390fd5b6100b1816100f460201b60201c565b50600180819055508173ffffffffffffffffffffffffffffffffffffffff1660808173ffffffffffffffffffffffffffffffffffffffff168152505050506102b4565b5f805f9054906101000a900473ffffffffffffffffffffffffffffffffffffffff169050815f806101000a81548173ffffffffffffffffffffffffffffffffffffffff021916908373ffffffffffffffffffffffffffffffffffffffff1602179055508173ffffffffffffffffffffffffffffffffffffffff168173ffffffffffffffffffffffffffffffffffffffff167f8be0079c531659141344cd1fd0a4f28419497f9722a3daafe3b4186f6b6457e060405160405180910390a35050565b5f80fd5b5f73ffffffffffffffffffffffffffffffffffffffff82169050919050565b5f6101e2826101b9565b9050919050565b5f6101f3826101d8565b9050919050565b610203816101e9565b811461020d575f80fd5b50565b5f8151905061021e816101fa565b92915050565b61022d816101d8565b8114610237575f80fd5b50565b5f8151905061024881610224565b92915050565b5f8060408385031215610264576102636101b5565b5b5f61027185828601610210565b92505060206102828582860161023a565b9150509250929050565b610295816101d8565b82525050565b5f6020820190506102ae5f83018461028c565b92915050565b6080516136d66102d35f395f8181610c810152611c5901526136d65ff3fe608060405234801561000f575f80fd5b506004361061020f575f3560e01c80638da5cb5b11610123578063b47b2fb1116100ab578063e1b4af691161007a578063e1b4af6914610715578063ecd24a8214610745578063f0ab1f7314610775578063f2fde38b14610791578063f43e1d5a146107ad5761020f565b8063b47b2fb114610666578063b6a8b0fa14610697578063c4e833ce146106c7578063dc98354e146106e55761020f565b80639c6b88a8116100f25780639c6b88a8146105745780639f063efc146105a4578063a3967d38146105d5578063a4b588a114610605578063a910f80f146106365761020f565b80638da5cb5b146104da5780638df35287146104f857806392a0a9ca1461052857806392d1dd43146105585761020f565b80635c85c588116101a65780636fe7e6eb116101755780636fe7e6eb14610422578063702a735814610452578063715018a6146104825780637551f04d1461048c57806379036b7b146104aa5761020f565b80635c85c588146103815780635e48c0371461039d57806362308e85146103d35780636c2bbe7e146103f15761020f565b806331e30225116101e257806331e30225146102bf5780633b8936d2146102ef57806354b7a8f71461031f578063575e24b41461034f5761020f565b806321d0ee70146102135780632375d0c614610243578063259982e514610273578063275e9179146102a3575b5f80fd5b61022d60048036038101906102289190612056565b6107dd565b60405161023a9190612116565b60405180910390f35b61025d6004803603810190610258919061212f565b610810565b60405161026a9190612227565b60405180910390f35b61028d60048036038101906102889190612056565b610909565b60405161029a9190612116565b60405180910390f35b6102bd60048036038101906102b8919061226a565b61093c565b005b6102d960048036038101906102d4919061212f565b610a22565b6040516102e691906122c9565b60405180910390f35b6103096004803603810190610304919061212f565b610a5c565b60405161031691906122f1565b60405180910390f35b6103396004803603810190610334919061233d565b610ac2565b6040516103469190612392565b60405180910390f35b610369600480360381019061036491906123c9565b610aee565b604051610378939291906124ae565b60405180910390f35b61039b6004803603810190610396919061250d565b610ba9565b005b6103b760048036038101906103b2919061233d565b610c09565b6040516103ca979695949392919061255a565b60405180910390f35b6103db610c7f565b6040516103e89190612619565b60405180910390f35b61040b6004803603810190610406919061265c565b610ca3565b604051610419929190612719565b60405180910390f35b61043c600480360381019061043791906127a0565b610cd7565b6040516104499190612116565b60405180910390f35b61046c60048036038101906104679190612805565b610d0a565b60405161047991906122c9565b60405180910390f35b61048a610dcc565b005b610494610ddf565b6040516104a191906122c9565b60405180910390f35b6104c460048036038101906104bf9190612843565b610dec565b6040516104d191906122c9565b60405180910390f35b6104e2611276565b6040516104ef91906128a8565b60405180910390f35b610512600480360381019061050d919061233d565b61129d565b60405161051f91906122c9565b60405180910390f35b610542600480360381019061053d919061233d565b6112b2565b60405161054f91906122c9565b60405180910390f35b610572600480360381019061056d91906128c1565b6112c7565b005b61058e6004803603810190610589919061212f565b611501565b60405161059b9190612946565b60405180910390f35b6105be60048036038101906105b9919061265c565b611522565b6040516105cc929190612719565b60405180910390f35b6105ef60048036038101906105ea919061212f565b611556565b6040516105fc91906128a8565b60405180910390f35b61061f600480360381019061061a919061212f565b6115af565b60405161062d92919061295f565b60405180910390f35b610650600480360381019061064b9190612986565b6115fb565b60405161065d9190612116565b60405180910390f35b610680600480360381019061067b9190612a1e565b6116ad565b60405161068e929190612ad2565b60405180910390f35b6106b160048036038101906106ac9190612af9565b6116c7565b6040516106be9190612116565b60405180910390f35b6106cf6116fa565b6040516106dc9190612caf565b60405180910390f35b6106ff60048036038101906106fa9190612cc9565b611785565b60405161070c9190612116565b60405180910390f35b61072f600480360381019061072a9190612af9565b6117b8565b60405161073c9190612116565b60405180910390f35b61075f600480360381019061075a9190612d19565b6117eb565b60405161076c91906122f1565b60405180910390f35b61078f600480360381019061078a9190612d44565b611808565b005b6107ab60048036038101906107a69190612d19565b611997565b005b6107c760048036038101906107c2919061212f565b611a1b565b6040516107d491906122f1565b60405180910390f35b5f6040517f0a85dc2900000000000000000000000000000000000000000000000000000000815260040160405180910390fd5b610818611e7d565b5f6108328380360381019061082d9190612f26565b611aa3565b905060025f8281526020019081526020015f206040518060e00160405290815f820154815260200160018201548152602001600282015f9054906101000a900473ffffffffffffffffffffffffffffffffffffffff1673ffffffffffffffffffffffffffffffffffffffff1673ffffffffffffffffffffffffffffffffffffffff1681526020016003820154815260200160048201548152602001600582015f9054906101000a900460ff161515151581526020016005820160019054906101000a900460ff161515151581525050915050919050565b5f6040517f0a85dc2900000000000000000000000000000000000000000000000000000000815260040160405180910390fd5b610944611aaf565b5f61095e848036038101906109599190612f26565b611aa3565b90508260045f8381526020019081526020015f20819055508160055f8381526020019081526020015f208190555073__$a4140056dec69da5dcc4d560fefd4f49d3$__636300c14784846040518363ffffffff1660e01b81526004016109c5929190612f60565b602060405180830381865af41580156109e0573d5f803e3d5ffd5b505050506040513d601f19601f82011682018060405250810190610a049190612f9b565b60025f8381526020019081526020015f206004018190555050505050565b5f80610a3d83803603810190610a389190612f26565b611aa3565b905060025f8281526020019081526020015f2060040154915050919050565b5f80610a7783803603810190610a729190612f26565b611aa3565b90505f60025f8381526020019081526020015f209050806005015f9054906101000a900460ff168015610ab957508060050160019054906101000a900460ff16155b92505050919050565b6006602052805f5260405f205f915054906101000a90046fffffffffffffffffffffffffffffffff1681565b5f805f80610b0b88803603810190610b069190612f26565b611aa3565b90505f60025f8381526020019081526020015f209050806005015f9054906101000a900460ff168015610b4d57508060050160019054906101000a900460ff16155b610b8c576040517f08c379a0000000000000000000000000000000000000000000000000000000008152600401610b8390613020565b60405180910390fd5b63575e24b460e01b5f809450945094505050955095509592505050565b610bb1611aaf565b8060035f8473ffffffffffffffffffffffffffffffffffffffff1673ffffffffffffffffffffffffffffffffffffffff1681526020019081526020015f205f6101000a81548160ff0219169083151502179055505050565b6002602052805f5260405f205f91509050805f015490806001015490806002015f9054906101000a900473ffffffffffffffffffffffffffffffffffffffff1690806003015490806004015490806005015f9054906101000a900460ff16908060050160019054906101000a900460ff16905087565b7f000000000000000000000000000000000000000000000000000000000000000081565b5f806040517f0a85dc2900000000000000000000000000000000000000000000000000000000815260040160405180910390fd5b5f6040517f0a85dc2900000000000000000000000000000000000000000000000000000000815260040160405180910390fd5b5f80610d2584803603810190610d209190612f26565b611aa3565b905073__$a4140056dec69da5dcc4d560fefd4f49d3$__630818ec8a8460045f8581526020019081526020015f205460055f8681526020019081526020015f20546040518463ffffffff1660e01b8152600401610d849392919061303e565b602060405180830381865af4158015610d9f573d5f803e3d5ffd5b505050506040513d601f19601f82011682018060405250810190610dc39190612f9b565b91505092915050565b610dd4611aaf565b610ddd5f611b36565b565b683635c9adc5dea0000081565b5f610df5611bf7565b5f610e0f86803603810190610e0a9190612f26565b611aa3565b90505f60025f8381526020019081526020015f209050806005015f9054906101000a900460ff168015610e5157508060050160019054906101000a900460ff16155b610e90576040517f08c379a0000000000000000000000000000000000000000000000000000000008152600401610e8790613020565b60405180910390fd5b806002015f9054906101000a900473ffffffffffffffffffffffffffffffffffffffff1673ffffffffffffffffffffffffffffffffffffffff163373ffffffffffffffffffffffffffffffffffffffff1614610f21576040517f08c379a0000000000000000000000000000000000000000000000000000000008152600401610f18906130bd565b60405180910390fd5b73__$a4140056dec69da5dcc4d560fefd4f49d3$__630818ec8a8660045f8681526020019081526020015f205460055f8781526020019081526020015f20546040518463ffffffff1660e01b8152600401610f7e9392919061303e565b602060405180830381865af4158015610f99573d5f803e3d5ffd5b505050506040513d601f19601f82011682018060405250810190610fbd9190612f9b565b925083831015611002576040517f08c379a0000000000000000000000000000000000000000000000000000000008152600401610ff990613125565b60405180910390fd5b60045f8381526020019081526020015f205473__$a4140056dec69da5dcc4d560fefd4f49d3$__63e6cb90139091876040518363ffffffff1660e01b815260040161104e929190612f60565b602060405180830381865af4158015611069573d5f803e3d5ffd5b505050506040513d601f19601f8201168201806040525081019061108d9190612f9b565b60045f8481526020019081526020015f208190555060055f8381526020019081526020015f205473__$a4140056dec69da5dcc4d560fefd4f49d3$__63a293d1e89091856040518363ffffffff1660e01b81526004016110ee929190612f60565b602060405180830381865af4158015611109573d5f803e3d5ffd5b505050506040513d601f19601f8201168201806040525081019061112d9190612f9b565b60055f8481526020019081526020015f208190555082816003015f8282546111559190613170565b9250508190555073__$a4140056dec69da5dcc4d560fefd4f49d3$__636300c14760045f8581526020019081526020015f205460055f8681526020019081526020015f20546040518363ffffffff1660e01b81526004016111b7929190612f60565b602060405180830381865af41580156111d2573d5f803e3d5ffd5b505050506040513d601f19601f820116820180604052508101906111f69190612f9b565b81600401819055508573ffffffffffffffffffffffffffffffffffffffff1687604051611223919061333e565b60405180910390207f9d352afabad52fa0ca882f7c8c9f7a1b1fe89e27ceae6c775e9d7298b05c2534878660405161125c92919061295f565b60405180910390a3505061126e611c3d565b949350505050565b5f805f9054906101000a900473ffffffffffffffffffffffffffffffffffffffff16905090565b6005602052805f5260405f205f915090505481565b6004602052805f5260405f205f915090505481565b60035f3373ffffffffffffffffffffffffffffffffffffffff1673ffffffffffffffffffffffffffffffffffffffff1681526020019081526020015f205f9054906101000a900460ff16611350576040517f08c379a0000000000000000000000000000000000000000000000000000000008152600401611347906133c8565b60405180910390fd5b5f61136a858036038101906113659190612f26565b611aa3565b90506040518060e001604052808581526020018481526020018373ffffffffffffffffffffffffffffffffffffffff1681526020015f8152602001670de0b6b3a764000081526020016001151581526020015f151581525060025f8381526020019081526020015f205f820151815f0155602082015181600101556040820151816002015f6101000a81548173ffffffffffffffffffffffffffffffffffffffff021916908373ffffffffffffffffffffffffffffffffffffffff160217905550606082015181600301556080820151816004015560a0820151816005015f6101000a81548160ff02191690831515021790555060c08201518160050160016101000a81548160ff021916908315150217905550905050683635c9adc5dea0000060045f8381526020019081526020015f2081905550683635c9adc5dea0000060055f8381526020019081526020015f208190555082847fc7bdf404477cb199c53211d1b4d530807b0412c6fdc075afff63db641ec6f77c87856040516114f29291906134b0565b60405180910390a35050505050565b5f61151b828036038101906115169190612f26565b611aa3565b9050919050565b5f806040517f0a85dc2900000000000000000000000000000000000000000000000000000000815260040160405180910390fd5b5f806115718380360381019061156c9190612f26565b611aa3565b905060025f8281526020019081526020015f206002015f9054906101000a900473ffffffffffffffffffffffffffffffffffffffff16915050919050565b5f805f6115cb848036038101906115c69190612f26565b611aa3565b905060045f8281526020019081526020015f205460055f8381526020019081526020015f20549250925050915091565b5f80611616878036038101906116119190612f26565b611aa3565b90505f73ffffffffffffffffffffffffffffffffffffffff1660025f8381526020019081526020015f206002015f9054906101000a900473ffffffffffffffffffffffffffffffffffffffff1673ffffffffffffffffffffffffffffffffffffffff161461169857611697878036038101906116929190612f26565b611c46565b5b636fe7e6eb60e01b9150509695505050505050565b5f8063b47b2fb160e01b5f91509150965096945050505050565b5f6040517f0a85dc2900000000000000000000000000000000000000000000000000000000815260040160405180910390fd5b611702611ecd565b604051806101c001604052805f151581526020016001151581526020015f151581526020015f151581526020015f151581526020015f151581526020016001151581526020016001151581526020015f151581526020015f151581526020016001151581526020015f151581526020015f151581526020015f1515815250905090565b5f6040517f0a85dc2900000000000000000000000000000000000000000000000000000000815260040160405180910390fd5b5f6040517f0a85dc2900000000000000000000000000000000000000000000000000000000815260040160405180910390fd5b6003602052805f5260405f205f915054906101000a900460ff1681565b5f6118228380360381019061181d9190612f26565b611aa3565b90505f60025f8381526020019081526020015f209050806002015f9054906101000a900473ffffffffffffffffffffffffffffffffffffffff1673ffffffffffffffffffffffffffffffffffffffff163373ffffffffffffffffffffffffffffffffffffffff16146118c9576040517f08c379a00000000000000000000000000000000000000000000000000000000081526004016118c0906130bd565b60405180910390fd5b806005015f9054906101000a900460ff16611919576040517f08c379a000000000000000000000000000000000000000000000000000000000815260040161191090613521565b60405180910390fd5b5f816005015f6101000a81548160ff02191690831515021790555060018160050160016101000a81548160ff0219169083151502179055508060010154815f01547f5f1be05ee09edeb88d1f6ff3645b8e2ae3cb2079f1e00efd2881d93a26f457448560405161198991906122f1565b60405180910390a350505050565b61199f611aaf565b5f73ffffffffffffffffffffffffffffffffffffffff168173ffffffffffffffffffffffffffffffffffffffff1603611a0f575f6040517f1e4fbdf7000000000000000000000000000000000000000000000000000000008152600401611a0691906128a8565b60405180910390fd5b611a1881611b36565b50565b5f80611a3683803603810190611a319190612f26565b611aa3565b90505f73ffffffffffffffffffffffffffffffffffffffff1660025f8381526020019081526020015f206002015f9054906101000a900473ffffffffffffffffffffffffffffffffffffffff1673ffffffffffffffffffffffffffffffffffffffff161415915050919050565b5f60a082209050919050565b611ab7611d74565b73ffffffffffffffffffffffffffffffffffffffff16611ad5611276565b73ffffffffffffffffffffffffffffffffffffffff1614611b3457611af8611d74565b6040517f118cdaa7000000000000000000000000000000000000000000000000000000008152600401611b2b91906128a8565b60405180910390fd5b565b5f805f9054906101000a900473ffffffffffffffffffffffffffffffffffffffff169050815f806101000a81548173ffffffffffffffffffffffffffffffffffffffff021916908373ffffffffffffffffffffffffffffffffffffffff1602179055508173ffffffffffffffffffffffffffffffffffffffff168173ffffffffffffffffffffffffffffffffffffffff167f8be0079c531659141344cd1fd0a4f28419497f9722a3daafe3b4186f6b6457e060405160405180910390a35050565b600260015403611c33576040517f3ee5aeb500000000000000000000000000000000000000000000000000000000815260040160405180910390fd5b6002600181905550565b60018081905550565b5f611c5082611aa3565b90505f611c9c827f000000000000000000000000000000000000000000000000000000000000000073ffffffffffffffffffffffffffffffffffffffff16611d7b90919063ffffffff16565b50505090505f73__$a4140056dec69da5dcc4d560fefd4f49d3$__63f0f3d70c683635c9adc5dea0000080856040518463ffffffff1660e01b8152600401611ce69392919061354e565b602060405180830381865af4158015611d01573d5f803e3d5ffd5b505050506040513d601f19601f82011682018060405250810190611d2591906135ad565b90508060065f8581526020019081526020015f205f6101000a8154816fffffffffffffffffffffffffffffffff02191690836fffffffffffffffffffffffffffffffff16021790555050505050565b5f33905090565b5f805f805f611d8986611e49565b90505f8773ffffffffffffffffffffffffffffffffffffffff16631e2eaeaf836040518263ffffffff1660e01b8152600401611dc591906135e7565b602060405180830381865afa158015611de0573d5f803e3d5ffd5b505050506040513d601f19601f82011682018060405250810190611e04919061362a565b905073ffffffffffffffffffffffffffffffffffffffff811695508060a01c60020b945062ffffff8160b81c16935062ffffff8160d01c169250505092959194509250565b5f8160065f1b604051602001611e60929190613675565b604051602081830303815290604052805190602001209050919050565b6040518060e001604052805f81526020015f81526020015f73ffffffffffffffffffffffffffffffffffffffff1681526020015f81526020015f81526020015f151581526020015f151581525090565b604051806101c001604052805f151581526020015f151581526020015f151581526020015f151581526020015f151581526020015f151581526020015f151581526020015f151581526020015f151581526020015f151581526020015f151581526020015f151581526020015f151581526020015f151581525090565b5f604051905090565b5f80fd5b5f80fd5b5f73ffffffffffffffffffffffffffffffffffffffff82169050919050565b5f611f8482611f5b565b9050919050565b611f9481611f7a565b8114611f9e575f80fd5b50565b5f81359050611faf81611f8b565b92915050565b5f80fd5b5f60a08284031215611fce57611fcd611fb5565b5b81905092915050565b5f60808284031215611fec57611feb611fb5565b5b81905092915050565b5f80fd5b5f80fd5b5f80fd5b5f8083601f84011261201657612015611ff5565b5b8235905067ffffffffffffffff81111561203357612032611ff9565b5b60208301915083600182028301111561204f5761204e611ffd565b5b9250929050565b5f805f805f61016086880312156120705761206f611f53565b5b5f61207d88828901611fa1565b955050602061208e88828901611fb9565b94505060c061209f88828901611fd7565b93505061014086013567ffffffffffffffff8111156120c1576120c0611f57565b5b6120cd88828901612001565b92509250509295509295909350565b5f7fffffffff0000000000000000000000000000000000000000000000000000000082169050919050565b612110816120dc565b82525050565b5f6020820190506121295f830184612107565b92915050565b5f60a0828403121561214457612143611f53565b5b5f61215184828501611fb9565b91505092915050565b5f819050919050565b61216c8161215a565b82525050565b61217b81611f7a565b82525050565b5f8115159050919050565b61219581612181565b82525050565b60e082015f8201516121af5f850182612163565b5060208201516121c26020850182612163565b5060408201516121d56040850182612172565b5060608201516121e86060850182612163565b5060808201516121fb6080850182612163565b5060a082015161220e60a085018261218c565b5060c082015161222160c085018261218c565b50505050565b5f60e08201905061223a5f83018461219b565b92915050565b6122498161215a565b8114612253575f80fd5b50565b5f8135905061226481612240565b92915050565b5f805f60e0848603121561228157612280611f53565b5b5f61228e86828701611fb9565b93505060a061229f86828701612256565b92505060c06122b086828701612256565b9150509250925092565b6122c38161215a565b82525050565b5f6020820190506122dc5f8301846122ba565b92915050565b6122eb81612181565b82525050565b5f6020820190506123045f8301846122e2565b92915050565b5f819050919050565b61231c8161230a565b8114612326575f80fd5b50565b5f8135905061233781612313565b92915050565b5f6020828403121561235257612351611f53565b5b5f61235f84828501612329565b91505092915050565b5f6fffffffffffffffffffffffffffffffff82169050919050565b61238c81612368565b82525050565b5f6020820190506123a55f830184612383565b92915050565b5f606082840312156123c0576123bf611fb5565b5b81905092915050565b5f805f805f61014086880312156123e3576123e2611f53565b5b5f6123f088828901611fa1565b955050602061240188828901611fb9565b94505060c0612412888289016123ab565b93505061012086013567ffffffffffffffff81111561243457612433611f57565b5b61244088828901612001565b92509250509295509295909350565b5f819050919050565b5f819050919050565b5f61247b6124766124718461244f565b612458565b61244f565b9050919050565b61248b81612461565b82525050565b5f62ffffff82169050919050565b6124a881612491565b82525050565b5f6060820190506124c15f830186612107565b6124ce6020830185612482565b6124db604083018461249f565b949350505050565b6124ec81612181565b81146124f6575f80fd5b50565b5f81359050612507816124e3565b92915050565b5f806040838503121561252357612522611f53565b5b5f61253085828601611fa1565b9250506020612541858286016124f9565b9150509250929050565b61255481611f7a565b82525050565b5f60e08201905061256d5f83018a6122ba565b61257a60208301896122ba565b612587604083018861254b565b61259460608301876122ba565b6125a160808301866122ba565b6125ae60a08301856122e2565b6125bb60c08301846122e2565b98975050505050505050565b5f6125e16125dc6125d784611f5b565b612458565b611f5b565b9050919050565b5f6125f2826125c7565b9050919050565b5f612603826125e8565b9050919050565b612613816125f9565b82525050565b5f60208201905061262c5f83018461260a565b92915050565b61263b8161244f565b8114612645575f80fd5b50565b5f8135905061265681612632565b92915050565b5f805f805f805f6101a0888a03121561267857612677611f53565b5b5f6126858a828b01611fa1565b97505060206126968a828b01611fb9565b96505060c06126a78a828b01611fd7565b9550506101406126b98a828b01612648565b9450506101606126cb8a828b01612648565b93505061018088013567ffffffffffffffff8111156126ed576126ec611f57565b5b6126f98a828b01612001565b925092505092959891949750929550565b61271381612461565b82525050565b5f60408201905061272c5f830185612107565b612739602083018461270a565b9392505050565b61274981611f5b565b8114612753575f80fd5b50565b5f8135905061276481612740565b92915050565b5f8160020b9050919050565b61277f8161276a565b8114612789575f80fd5b50565b5f8135905061279a81612776565b92915050565b5f805f8061010085870312156127b9576127b8611f53565b5b5f6127c687828801611fa1565b94505060206127d787828801611fb9565b93505060c06127e887828801612756565b92505060e06127f98782880161278c565b91505092959194509250565b5f8060c0838503121561281b5761281a611f53565b5b5f61282885828601611fb9565b92505060a061283985828601612256565b9150509250929050565b5f805f80610100858703121561285c5761285b611f53565b5b5f61286987828801611fb9565b94505060a061287a87828801611fa1565b93505060c061288b87828801612256565b92505060e061289c87828801612256565b91505092959194509250565b5f6020820190506128bb5f83018461254b565b92915050565b5f805f8061010085870312156128da576128d9611f53565b5b5f6128e787828801611fb9565b94505060a06128f887828801612256565b93505060c061290987828801612256565b92505060e061291a87828801611fa1565b91505092959194509250565b5f6129308261230a565b9050919050565b61294081612926565b82525050565b5f6020820190506129595f830184612937565b92915050565b5f6040820190506129725f8301856122ba565b61297f60208301846122ba565b9392505050565b5f805f805f8061012087890312156129a1576129a0611f53565b5b5f6129ae89828a01611fa1565b96505060206129bf89828a01611fb9565b95505060c06129d089828a01612756565b94505060e06129e189828a0161278c565b93505061010087013567ffffffffffffffff811115612a0357612a02611f57565b5b612a0f89828a01612001565b92509250509295509295509295565b5f805f805f806101608789031215612a3957612a38611f53565b5b5f612a4689828a01611fa1565b9650506020612a5789828a01611fb9565b95505060c0612a6889828a016123ab565b945050610120612a7a89828a01612648565b93505061014087013567ffffffffffffffff811115612a9c57612a9b611f57565b5b612aa889828a01612001565b92509250509295509295509295565b5f81600f0b9050919050565b612acc81612ab7565b82525050565b5f604082019050612ae55f830185612107565b612af26020830184612ac3565b9392505050565b5f805f805f806101208789031215612b1457612b13611f53565b5b5f612b2189828a01611fa1565b9650506020612b3289828a01611fb9565b95505060c0612b4389828a01612256565b94505060e0612b5489828a01612256565b93505061010087013567ffffffffffffffff811115612b7657612b75611f57565b5b612b8289828a01612001565b92509250509295509295509295565b6101c082015f820151612ba65f85018261218c565b506020820151612bb9602085018261218c565b506040820151612bcc604085018261218c565b506060820151612bdf606085018261218c565b506080820151612bf2608085018261218c565b5060a0820151612c0560a085018261218c565b5060c0820151612c1860c085018261218c565b5060e0820151612c2b60e085018261218c565b50610100820151612c4061010085018261218c565b50610120820151612c5561012085018261218c565b50610140820151612c6a61014085018261218c565b50610160820151612c7f61016085018261218c565b50610180820151612c9461018085018261218c565b506101a0820151612ca96101a085018261218c565b50505050565b5f6101c082019050612cc35f830184612b91565b92915050565b5f805f60e08486031215612ce057612cdf611f53565b5b5f612ced86828701611fa1565b9350506020612cfe86828701611fb9565b92505060c0612d0f86828701612756565b9150509250925092565b5f60208284031215612d2e57612d2d611f53565b5b5f612d3b84828501611fa1565b91505092915050565b5f8060c08385031215612d5a57612d59611f53565b5b5f612d6785828601611fb9565b92505060a0612d78858286016124f9565b9150509250929050565b5f80fd5b5f601f19601f8301169050919050565b7f4e487b71000000000000000000000000000000000000000000000000000000005f52604160045260245ffd5b612dcc82612d86565b810181811067ffffffffffffffff82111715612deb57612dea612d96565b5b80604052505050565b5f612dfd611f4a565b9050612e098282612dc3565b919050565b612e1781611f7a565b8114612e21575f80fd5b50565b5f81359050612e3281612e0e565b92915050565b612e4181612491565b8114612e4b575f80fd5b50565b5f81359050612e5c81612e38565b92915050565b5f612e6c82611f7a565b9050919050565b612e7c81612e62565b8114612e86575f80fd5b50565b5f81359050612e9781612e73565b92915050565b5f60a08284031215612eb257612eb1612d82565b5b612ebc60a0612df4565b90505f612ecb84828501612e24565b5f830152506020612ede84828501612e24565b6020830152506040612ef284828501612e4e565b6040830152506060612f068482850161278c565b6060830152506080612f1a84828501612e89565b60808301525092915050565b5f60a08284031215612f3b57612f3a611f53565b5b5f612f4884828501612e9d565b91505092915050565b612f5a8161215a565b82525050565b5f604082019050612f735f830185612f51565b612f806020830184612f51565b9392505050565b5f81519050612f9581612240565b92915050565b5f60208284031215612fb057612faf611f53565b5b5f612fbd84828501612f87565b91505092915050565b5f82825260208201905092915050565b7f5175616e74756d486f6f6b3a20706f6f6c206e6f7420616374697665000000005f82015250565b5f61300a601c83612fc6565b915061301582612fd6565b602082019050919050565b5f6020820190508181035f83015261303781612ffe565b9050919050565b5f6060820190506130515f830186612f51565b61305e6020830185612f51565b61306b6040830184612f51565b949350505050565b7f5175616e74756d486f6f6b3a20756e617574686f72697a65642063616c6c65725f82015250565b5f6130a7602083612fc6565b91506130b282613073565b602082019050919050565b5f6020820190508181035f8301526130d48161309b565b9050919050565b7f5175616e74756d486f6f6b3a20736c69707061676520657863656564656400005f82015250565b5f61310f601e83612fc6565b915061311a826130db565b602082019050919050565b5f6020820190508181035f83015261313c81613103565b9050919050565b7f4e487b71000000000000000000000000000000000000000000000000000000005f52601160045260245ffd5b5f61317a8261215a565b91506131858361215a565b925082820190508082111561319d5761319c613143565b5b92915050565b5f6131b16020840184612e24565b905092915050565b5f6131c3826125e8565b9050919050565b6131d3816131b9565b82525050565b5f6131e483836131ca565b60208301905092915050565b5f6131fe6020840184612e4e565b905092915050565b61320f81612491565b82525050565b5f6132208383613206565b60208301905092915050565b5f61323a602084018461278c565b905092915050565b61324b8161276a565b82525050565b5f61325c8383613242565b60208301905092915050565b5f6132766020840184612e89565b905092915050565b5f613288826125e8565b9050919050565b6132988161327e565b82525050565b5f6132a9838361328f565b60208301905092915050565b5f82016132c45f8301836131a3565b6132ce84826131d9565b9350506132de60208301836131a3565b6132e884826131d9565b9350506132f860408301836131f0565b6133028482613215565b935050613312606083018361322c565b61331c8482613251565b93505061332c6080830183613268565b613336848261329e565b935050505050565b5f61334982846132b5565b60a08201915081905092915050565b7f5175616e74756d486f6f6b3a20756e617574686f72697a656420666163746f725f8201527f7900000000000000000000000000000000000000000000000000000000000000602082015250565b5f6133b2602183612fc6565b91506133bd82613358565b604082019050919050565b5f6020820190508181035f8301526133df816133a6565b9050919050565b6133ef816131b9565b82525050565b6133fe81612491565b82525050565b61340d8161276a565b82525050565b61341c8161327e565b82525050565b60a082016134325f8301836131a3565b61343e5f8501826133e6565b5061344c60208301836131a3565b61345960208501826133e6565b5061346760408301836131f0565b61347460408501826133f5565b50613482606083018361322c565b61348f6060850182613404565b5061349d6080830183613268565b6134aa6080850182613413565b50505050565b5f60c0820190506134c35f830185613422565b6134d060a083018461254b565b9392505050565b7f5175616e74756d486f6f6b3a20706f6f6c20616c72656164792066726f7a656e5f82015250565b5f61350b602083612fc6565b9150613516826134d7565b602082019050919050565b5f6020820190508181035f830152613538816134ff565b9050919050565b61354881611f5b565b82525050565b5f6060820190506135615f830186612f51565b61356e6020830185612f51565b61357b604083018461353f565b949350505050565b61358c81612368565b8114613596575f80fd5b50565b5f815190506135a781613583565b92915050565b5f602082840312156135c2576135c1611f53565b5b5f6135cf84828501613599565b91505092915050565b6135e18161230a565b82525050565b5f6020820190506135fa5f8301846135d8565b92915050565b6136098161230a565b8114613613575f80fd5b50565b5f8151905061362481613600565b92915050565b5f6020828403121561363f5761363e611f53565b5b5f61364c84828501613616565b91505092915050565b5f819050919050565b61366f61366a8261230a565b613655565b82525050565b5f613680828561365e565b602082019150613690828461365e565b602082019150819050939250505056fea26469706673582212207935abe0d1f95b1ad9d94ec89517f2fb78ecb71f54edc6ac67de8b33c9655c6c64736f6c634300081a0033","linkReferences":{"src/utils/MathUtils.sol":{"MathUtils":[{"start":3169,"length":20},{"start":4092,"length":20},{"start":4598,"length":20},{"start":4841,"length":20},{"start":5001,"length":20},{"start":5169,"length":20},{"start":8055,"length":20}]}}},"methodIdentifiers":{"INITIAL_VIRTUAL_LIQUIDITY()":"7551f04d","POOL_MANAGER()":"62308e85","afterAddLiquidity(address,(address,address,uint24,int24,address),(int24,int24,int256,bytes32),int256,int256,bytes)":"9f063efc","afterDonate(address,(address,address,uint24,int24,address),uint256,uint256,bytes)":"e1b4af69","afterInitialize(address,(address,address,uint24,int24,address),uint160,int24)":"6fe7e6eb","afterInitialize(address,(address,address,uint24,int24,address),uint160,int24,bytes)":"a910f80f","afterRemoveLiquidity(address,(address,address,uint24,int24,address),(int24,int24,int256,bytes32),int256,int256,bytes)":"6c2bbe7e","afterSwap(address,(address,address,uint24,int24,address),(bool,int256,uint160),int256,bytes)":"b47b2fb1","authorizedFactories(address)":"ecd24a82","beforeAddLiquidity(address,(address,address,uint24,int24,address),(int24,int24,int256,bytes32),bytes)":"259982e5","beforeDonate(address,(address,address,uint24,int24,address),uint256,uint256,bytes)":"b6a8b0fa","beforeInitialize(address,(address,address,uint24,int24,address),uint160)":"dc98354e","beforeRemoveLiquidity(address,(address,address,uint24,int24,address),(int24,int24,int256,bytes32),bytes)":"21d0ee70","beforeSwap(address,(address,address,uint24,int24,address),(bool,int256,uint160),bytes)":"575e24b4","calculateTokensOut((address,address,uint24,int24,address),uint256)":"702a7358","creditsReserves(bytes32)":"92a0a9ca","emergencyUpdateReserves((address,address,uint24,int24,address),uint256,uint256)":"275e9179","executeQuantumTrade((address,address,uint24,int24,address),address,uint256,uint256)":"79036b7b","freezeProposalPool((address,address,uint24,int24,address),bool)":"f0ab1f73","getCurrentPrice((address,address,uint24,int24,address))":"31e30225","getHookPermissions()":"c4e833ce","getPoolFactory((address,address,uint24,int24,address))":"a3967d38","getPoolId((address,address,uint24,int24,address))":"9c6b88a8","getPoolMetadata((address,address,uint24,int24,address))":"2375d0c6","getPoolReserves((address,address,uint24,int24,address))":"a4b588a1","isPoolActive((address,address,uint24,int24,address))":"3b8936d2","isPoolRegistered((address,address,uint24,int24,address))":"f43e1d5a","owner()":"8da5cb5b","poolMetadata(bytes32)":"5e48c037","registerProposalPool((address,address,uint24,int24,address),uint256,uint256,address)":"92d1dd43","renounceOwnership()":"715018a6","setAuthorizedFactory(address,bool)":"5c85c588","tokensReserves(bytes32)":"8df35287","totalLiquidity(bytes32)":"54b7a8f7","transferOwnership(address)":"f2fde38b"},"id":81}